:020000040800F2
:100000000050002061100008F10F0008F70F0008F1
:10001000FD0F000803100008091000080000000090
:100020000000000000000000000000000F100008A9
:100030001B10000800000000271000083310000803
:10004000A9100008A9100008A9100008A9100008AC
:10005000A9100008A9100008A9100008A91000089C
:10006000A9100008A9100008A9100008A91000088C
:10007000A9100008A9100008A9100008A91000087C
:10008000A9100008A9100008A9100008A91000086C
:10009000A9100008A9100008A9100008A91000085C
:1000A000A9100008A9100008A9100008A91000084C
:1000B00041100008A9100008A9100008A9100008A4
:1000C000A9100008A9100008A9100008A91000082C
:1000D000A9100008A9100008A9100008A91000081C
:1000E000A9100008A9100008A910000800000000CD
:1000F0000000000000000000000000000000000000
:0C01000000000000000000005FF808F1A3
:10010C0010B5054C237833B9044B13B10448AFF345
:10011C0000800123237010BD180000200000000097
:10012C00202E000808B5034B1BB103490348AFF35D
:10013C00008008BD000000001C000020202E0008DC
:10014C0080B582B000AF0346FB71174B1B68012BC7
:10015C0026D1FA2000F026F9144B1B68012B17D17D
:10016C00FB79002B04D100F041F800F07BF811E092
:10017C00FB79012B04D100F04DF800F083F809E075
:10018C00FB79022B06D100F059F800F08BF801E056
:10019C0000F00EF8054B1B68C3F10103034A136012
:1001AC0000BF0837BD4680BD5C0000203400002035
:1001BC0080B500AF00224FF480610A4801F09FFA2D
:1001CC0000220821084801F09AFA00222021064852
:1001DC0001F095FA00221021034801F090FA00BFBB
:1001EC0080BD00BF00080140000C014080B500AF8D
:1001FC0001224FF48061054801F081FA00220821A8
:10020C00034801F07CFA00BF80BD00BF000801402C
:10021C00000C014080B500AF00224FF4806105480E
:10022C0001F06DFA01220821034801F068FA00BFC1
:10023C0080BD00BF00080140000C014080B500AF3C
:10024C0001224FF48061054801F059FA012208217E
:10025C00034801F054FA00BF80BD00BF0008014004
:10026C00000C014080B500AF01222021044801F0B0
:10027C0046FA00221021024801F041FA00BF80BD6D
:10028C00000C014080B500AF00222021044801F091
:10029C0036FA01221021024801F031FA00BF80BD6C
:1002AC00000C014080B500AF01222021044801F070
:1002BC0026FA01221021024801F021FA00BF80BD6C
:1002CC00000C014080B483B000AF78607B68084AB2
:1002DC0082FB03129210DB17D31A064A1360064BEB
:1002EC0000221A6000BF0C37BD4680BC704700BFAF
:1002FC0067666666380000203C00002080B483B03E
:10030C0000AF78607B68084A82FB03129210DB17FF
:10031C00D31A064A1360064B00221A6000BF0C3732
:10032C00BD4680BC704700BF676666664000002013
:10033C004400002080B483B000AF78607B68084A2A
:10034C0082FB03129210DB17D31A064A1360064B7A
:10035C0000221A6000BF0C37BD4680BC704700BF3E
:10036C0067666666480000204C00002080B483B0AD
:10037C0000AF78607B68084A82FB03129210DB178F
:10038C00D31A064A1360064B00221A6000BF0C37C2
:10039C00BD4680BC704700BF676666665000002093
:1003AC005400002080B483B000AF78607B68084AAA
:1003BC0082FB03129210DB17D31A064A1360064B0A
:1003CC0000221A6000BF0C37BD4680BC704700BFCE
:1003DC0067666666580000205C00002080B400AFA1
:1003EC00294B1B68002B0BDD274B1B68013B264A56
:1003FC001360254B1B68002B02D1244B01221A6081
:10040C00234B1B68002B0BDD214B1B68013B204A47
:10041C0013601F4B1B68002B02D11E4B01221A606C
:10042C001D4B1B68002B0BDD1B4B1B68013B1A4A39
:10043C001360194B1B68002B02D1184B01221A6058
:10044C00174B1B68002B0BDD154B1B68013B144A2B
:10045C001360134B1B68002B02D1124B01221A6044
:10046C00114B1B68002B0BDD0F4B1B68013B0E4A1D
:10047C0013600D4B1B68002B02D10C4B01221A6030
:10048C0000BFBD4680BC7047380000203C000020F7
:10049C004000002044000020480000204C000020B8
:1004AC005000002054000020580000205C00002068
:1004BC0080B582B000AF78607B68032B22D801A294
:1004CC0052F823F0E1040008ED040008F9040008D8
:1004DC000505000802210E4801F0FAF8034613E066
:1004EC0010210B4801F0F4F803460DE001210948F6
:1004FC0001F0EEF8034607E00121054801F0E8F8A9
:10050C00034601E000BF002318460837BD4680BDF6
:10051C0000080140000C014080B483B000AF78604B
:10052C00044A7B68012142F8231000BF0C37BD46FA
:10053C0080BC70479800002080B483B000AF786016
:10054C00094A7B6852F82330012B06D1064A7B6896
:10055C00002142F82310012300E0002318460C3739
:10056C00BD4680BC704700BF9800002080B582B0AB
:10057C0000AF00237B6063E0354A7B6852F8232090
:10058C0034497B6841F82320334A7B6852F8232096
:10059C002F497B6841F823207868FFF789FF0246D2
:1005AC002D497B6841F82320294A7B6852F8232087
:1005BC0028497B6851F823309A423ED1244A7B6803
:1005CC0052F8232024497B6851F823309A4234D1C5
:1005DC00224A7B6852F823201F497B6851F823304C
:1005EC009A4216D01C4A7B6852F823201B497B6820
:1005FC0041F82320184A7B6852F82330002B1CD179
:10060C00174A7B68C82142F823107868FFF784FFEB
:10061C0013E0134A7B6852F823305A1E10497B684A
:10062C0041F823200E4A7B6852F82330002B04D16A
:10063C000A4A7B68012142F823107B6801337B60F6
:10064C007B68032B98DD00BF00BF0837BD4680BD1B
:10065C008800002078000020A800002068000020FE
:10066C00B800002080B500AF924B1B68013B0E2BED
:10067C0000F2C58001A252F823F000BFC5060008A5
:10068C00DB060008350700088F0700080B08000878
:10069C000B0800080B0800080B0800080B080008E2
:1006AC000B0800080B0800080B0800080B080008D2
:1006BC000B080008E9070008FFF77AFD7D4B0222C2
:1006CC001A607D4B1B681846FFF7FCFDA0E0FFF796
:1006DC008DFD7A4B1B68012B07D1764B03221A60D8
:1006EC00774B1B681846FFF7EDFD0020FFF724FF42
:1006FC000346012B09D16F4B0C221A60714B0C2253
:10070C001A6043F69820FFF7DDFD0320FFF714FF76
:10071C000346012B75D1684B1B681846FFF7D2FDB9
:10072C00644B0F221A606CE0FFF774FD634B1B687F
:10073C00012B07D15F4B04221A60634B1B681846D0
:10074C00FFF7C0FD0020FFF7F7FE0346012B09D190
:10075C00584B0D221A605B4B0D221A6043F6982001
:10076C00FFF7B0FD0320FFF7E7FE0346012B4AD14C
:10077C00514B1B681846FFF7A5FD4E4B0F221A6014
:10078C0041E0FFF75BFD4D4B1B68012B07D1494B3B
:10079C0002221A60484B1B681846FFF793FD002095
:1007AC00FFF7CAFE0346012B09D1424B0E221A60F9
:1007BC00444B0E221A6043F69820FFF783FD03206A
:1007CC00FFF7BAFE0346012B1FD13B4B1B681846A3
:1007DC00FFF778FD374B0F221A6016E000F016F980
:1007EC00364B1B68012B12D1344B1B68012B0ED1DD
:1007FC00304B01221A60334B01221A6007E000BF14
:10080C0006E000BF04E000BF02E000BF00E000BF54
:10081C002C4B1B68013B032B42D801A252F823F04E
:10082C003D08000853080008710800088F080008EC
:10083C00FFF7BEFC234B03221A60214B1B681846A2
:10084C00FFF794FD33E0FFF70DFD204B1B68012BE8
:10085C0028D11C4B03221A60194B1B681846FFF752
:10086C0085FD1FE0FFF70EFD184B1B68012B1BD1FC
:10087C00144B04221A60144B1B681846FFF776FDC4
:10088C0012E0FFF70FFD114B1B68012B0ED10D4B26
:10089C0002221A60084B1B681846FFF767FD05E03B
:1008AC0000BF04E000BF02E000BF00E000BF00BFDB
:1008BC0080BD00BF60000020000000203C00002034
:1008CC0004000020640000200800002054000020D8
:1008DC0080B500AF354B1B680E2B40D00E2B5BDC6C
:1008EC000C2B02D00D2B1DD056E00020FFF728FC5E
:1008FC0000F058FA2E4B1B68012B05D12B4B012213
:10090C001A602C4B01221A600020FFF715FE0346DB
:10091C00012B43D1254B0D221A6043F69820FFF78B
:10092C00D1FC3BE00120FFF70BFC00F03BFA204B25
:10093C001B68012B05D11D4B01221A601D4B012296
:10094C001A600020FFF7F8FD0346012B28D1174B46
:10095C000E221A6043F69820FFF7B4FC20E0022028
:10096C00FFF7EEFB00F01EFA114B1B68012B05D1B3
:10097C000E4B01221A600F4B01221A600020FFF768
:10098C00DBFD0346012B0DD1084B0C221A6043F6FC
:10099C009820FFF797FC05E000BF04E000BF02E0E1
:1009AC0000BF00E000BF00BF80BD00BF60000020A2
:1009BC003C0000206400002080B483B000AF78605D
:1009CC00034A7B68136000BF0C37BD4680BC704780
:1009DC000000002080B483B000AF7860034A7B68CD
:1009EC00136000BF0C37BD4680BC7047040000206C
:1009FC0080B483B000AF7860034A7B68136000BF9B
:100A0C000C37BD4680BC70470800002080B500AF95
:100A1C00084B1B6864225A634FF47A7000F0A2FBF7
:100A2C00044B1B6801225A634FF47A7000F09AFB56
:100A3C0000BF80BDC800002080B500AF00F030FBC7
:100A4C0000F02CF800F02EF900F0B6F800F068F881
:100A5C0000210E4801F04EFB0D4801F0A1FA0D4BA0
:100A6C0001221A600C4B01221A600A20FFF72AFCA3
:100A7C000A20FFF743FC0A20FFF75CFC0A20FFF773
:100A8C0091FCFFF7EFFDFFF723FFFAE7C80000200A
:100A9C0010010020600000206400002080B590B0A0
:100AAC0000AF07F1180328220021184602F0AAF91A
:100ABC003B1D00221A605A609A60DA601A610223A8
:100ACC00BB610123BB621023FB6202237B63002307
:100ADC00BB634FF46013FB6307F11803184600F077
:100AEC0027FE0346002B01D000F056F90F237B6044
:100AFC000223BB600023FB604FF480633B61002347
:100B0C007B613B1D0221184601F092F80346002B35
:100B1C0001D000F041F900BF4037BD4680BD000058
:100B2C0080B586B000AF07F1080300221A605A6046
:100B3C009A60DA603B4600221A605A601D4B4FF0F7
:100B4C0080421A601B4B3F225A601A4B00229A605B
:100B5C00184B42F20F72DA60164B00221A61154BD9
:100B6C0000229A61134801F0CBF90346002B01D007
:100B7C0000F012F94FF48053BB6007F108031946DB
:100B8C000C4801F01FFD0346002B01D000F004F9C6
:100B9C0000233B6000237B603B461946054802F06E
:100BAC009DF80346002B01D000F0F6F800BF183773
:100BBC00BD4680BD1001002080B58EB000AF07F19E
:100BCC00280300221A605A609A60DA6007F1200349
:100BDC0000221A605A603B1D00221A605A609A600B
:100BEC00DA601A615A619A612C4B2D4A1A602B4BB0
:100BFC003F225A60294B00229A60284B40F2E73280
:100C0C00DA60264B00221A61244B00229A61234899
:100C1C0001F076F90346002B01D000F0BDF84FF43B
:100C2C008053BB6207F1280319461C4801F0CAFC2B
:100C3C000346002B01D000F0AFF8184801F002FA7F
:100C4C000346002B01D000F0A7F800233B620023E1
:100C5C007B6207F120031946104802F03FF8034667
:100C6C00002B01D000F098F860237B600023BB6060
:100C7C000023FB6000237B613B1D002219460748C3
:100C8C0001F0E2FB0346002B01D000F085F803488D
:100C9C0000F076F900BF3837BD4680BDC800002093
:100CAC000004004080B586B000AF07F108030022B5
:100CBC001A605A609A60DA602E4B9B692D4A43F099
:100CCC00040393612B4B9B6903F004037B607B68EB
:100CDC00284B9B69274A43F008039361254B9B697A
:100CEC0003F008033B603B6800224FF48761224805
:100CFC0000F005FD00224FF4A061204800F0FFFC3D
:100D0C001323BB600023FB6001233B6107F1080345
:100D1C0019461A4800F058FB0123BB600023FB6006
:100D2C0001233B6107F108031946134800F04CFB03
:100D3C004FF48763BB600123FB6000233B610223FC
:100D4C007B6107F1080319460B4800F03DFB4FF49B
:100D5C00A063BB600123FB6000233B6102237B612A
:100D6C0007F108031946054800F02EFB00BF1837A1
:100D7C00BD4680BD00100240000C0140000801403F
:100D8C0080B582B000AF7860FFF728FBFFF7EEFB71
:100D9C0000BF0837BD4680BD80B400AF72B600BF3F
:100DAC00FEE7000080B500AF394B1B680E2B3ED020
:100DBC000E2B58DC0C2B02D00D2B1CD053E0012039
:100DCC00FFF7BAFB0346012B4FD1324B1B6803F5DF
:100DDC007A72314B83FB02135913D317CB1A2F4959
:100DEC0001FB03F3D31A2B4A13602A4B1B681846DA
:100DFC00FFF7E2FD39E00120FFF79EFB0346012BD4
:100E0C0035D1274B1B6803F57A72234B83FB0213F6
:100E1C005913D317CB1A214901FB03F3D31A204AD8
:100E2C0013601F4B1B681846FFF7D4FD1FE0012011
:100E3C00FFF782FB0346012B1BD11A4B1B6803F5F2
:100E4C007A72154B83FB02135913D317CB1A134920
:100E5C0001FB03F3D31A134A1360124B1B68184699
:100E6C00FFF7C6FD05E000BF04E000BF02E000BFD5
:100E7C0000E000BF0220FFF75FFB0346012B05D10A
:100E8C00034B01221A60084B01221A6000BF80BD7F
:100E9C00600000200000002089B5F814A086010035
:100EAC0004000020080000206400002080B485B0FD
:100EBC0000AF154B9B69144A43F001039361124B2D
:100ECC009B6903F00103BB60BB680F4BDB690E4AE7
:100EDC0043F08053D3610C4BDB6903F080537B6090
:100EEC007B680A4B5B68FB60FB6823F0E063FB608C
:100EFC00FB6843F00073FB60044AFB68536000BF5F
:100F0C001437BD4680BC7047001002400000014001
:100F1C0080B584B000AF78607B681B68B3F1804FFC
:100F2C0014D1154BDB69144A43F00103D361124B06
:100F3C00DB6903F00103FB60FB68002200211C202D
:100F4C0000F00BFA1C2000F024FA10E07B681B6800
:100F5C000A4A93420BD1084BDB69074A43F0020360
:100F6C00D361054BDB6903F00203BB60BB6800BFB8
:100F7C001037BD4680BD00BF001002400004004089
:100F8C0080B588B000AF786007F1100300221A60BA
:100F9C005A609A60DA607B681B680F4A934217D1DB
:100FAC000E4B9B690D4A43F0040393610B4B9B69F9
:100FBC0003F00403FB60FB6840233B6102237B616D
:100FCC000223FB6107F110031946054800F0FCF9F8
:100FDC0000BF2037BD4680BD000400400010024019
:100FEC000008014080B400AFFEE780B400AFFEE71C
:100FFC0080B400AFFEE780B400AFFEE780B400AF72
:10100C00FEE780B400AF00BFBD4680BC704780B423
:10101C0000AF00BFBD4680BC704780B400AF00BFBE
:10102C00BD4680BC704780B500AF00F07FF800BFB4
:10103C0080BD000080B500AF024801F0FDF800BF94
:10104C0080BD00BF1001002080B400AF00BFBD46C2
:10105C0080BC70470C480D490D4A002302E0D4585F
:10106C00C4500433C4188C42F9D30A4A0A4C0023E6
:10107C0001E013600432A242FBD3FFF7E5FF01F05D
:10108C009DFEFFF7D9FC70470000002018000020DF
:10109C00602E0008180000205C010020FEE7000014
:1010AC0080B500AF084B1B68074A43F01003136070
:1010BC00032000F047F90F2000F008F8FFF7F6FEC8
:1010CC000023184680BD00BF0020024080B582B0CE
:1010DC0000AF7860124B1A68124B1B7819464FF40C
:1010EC007A73B3FBF1F3B2FBF3F3184600F05FF93C
:1010FC000346002B01D001230EE07B680F2B0AD88E
:10110C00002279684FF0FF3000F027F9064A7B681F
:10111C001360002300E0012318460837BD4680BD4C
:10112C000C000020140000201000002080B400AF40
:10113C00054B1B781A46054B1B681344034A136076
:10114C0000BFBD4680BC7047140000205801002031
:10115C0080B400AF024B1B681846BD4680BC70477C
:10116C005801002080B584B000AF7860FFF7F0FF25
:10117C00B8607B68FB60FB68B3F1FF3F05D00A4B9E
:10118C001B781A46FB681344FB6000BFFFF7E0FFB7
:10119C000246BB68D31AFA689A42F7D800BF00BF60
:1011AC001037BD4680BD00BF1400002080B485B050
:1011BC0000AF78607B6803F00703FB600C4BDB68C7
:1011CC00BB60BA684FF6FF031340BB60FB681A02A2
:1011DC00BB68134343F0BF6343F40033BB60044A62
:1011EC00BB68D36000BF1437BD4680BC704700BFDE
:1011FC0000ED00E080B400AF044BDB681B0A03F089
:10120C0007031846BD4680BC704700BF00ED00E0E8
:10121C0080B483B000AF0346FB7197F90730002B05
:10122C000BDBFB7903F01F02064997F907305B09CA
:10123C00012000FA02F241F8232000BF0C37BD4612
:10124C0080BC704700E100E080B483B000AF03467F
:10125C003960FB7197F90730002B0ADB3B68DAB277
:10126C000C4997F907301201D2B20B4483F80023D2
:10127C000AE03B68DAB20849FB7903F00F03043B40
:10128C001201D2B20B441A7600BF0C37BD4680BC9B
:10129C00704700BF00E100E000ED00E080B489B0D1
:1012AC0000AFF860B9607A60FB6803F00703FB617C
:1012BC00FB69C3F10703042B28BF0423BB61FB6943
:1012CC000433062B02D9FB69033B00E000237B614E
:1012DC004FF0FF32BB6902FA03F3DA43BB681A40E2
:1012EC007B699A404FF0FF317B6901FA03F3D943D4
:1012FC007B680B40134318462437BD4680BC7047AF
:10130C0080B582B000AF78607B68013BB3F1807F21
:10131C0001D301230FE00A4A7B68013B53600F2184
:10132C004FF0FF30FFF790FF054B00229A60044B03
:10133C0007221A60002318460837BD4680BD00BF3F
:10134C0010E000E080B582B000AF78607868FFF7FD
:10135C002DFF00BF0837BD4680BD80B586B000AFFD
:10136C000346B9607A60FB7300237B61FFF742FF91
:10137C0078617A68B9687869FFF790FF024697F947
:10138C000F3011461846FFF75FFF00BF1837BD46F8
:10139C0080BD80B582B000AF0346FB7197F9073072
:1013AC001846FFF735FF00BF0837BD4680BD80B536
:1013BC0082B000AF78607868FFF7A2FF034618464A
:1013CC000837BD4680BD000080B48BB000AF78609C
:1013DC00396000237B6200233B6269E101227B6A56
:1013EC0002FA03F3FB613B681B68FA691340BB61AB
:1013FC00BA69FB699A4240F058813B685B689A4A2B
:10140C0093425ED0984A934275D8984A934258D0EA
:10141C00964A93426FD8964A934252D0944A93423A
:10142C0069D8944A93424CD0924A934263D8924AD8
:10143C00934246D0904A93425DD8122B2AD8122B55
:10144C0059D801A252F823F0CF140008A9140008AF
:10145C00BB140008FD140008031500080315000850
:10146C0003150008031500080315000803150008F0
:10147C0003150008031500080315000803150008E0
:10148C00031500080315000803150008B114000823
:10149C00C5140008794A934213D02CE03B68DB68F2
:1014AC003B6229E03B68DB6804333B6224E03B6829
:1014BC00DB6808333B621FE03B68DB680C333B6244
:1014CC001AE03B689B68002B02D104233B6213E0BB
:1014DC003B689B68012B05D108233B627B68FA694A
:1014EC001A6109E008233B627B68FA695A6103E0E0
:1014FC0000233B6200E000BFBB69FF2B01D87B6877
:10150C0001E07B6804337B61BB69FF2B02D87B6AEB
:10151C009B0002E07B6A083B9B003B617B691A687D
:10152C000F213B6901FA03F3DB431A40396A3B692B
:10153C0001FA03F31A437B691A603B685B6803F09A
:10154C008053002B00F0B1804D4B9B694C4A43F00B
:10155C00010393614A4B9B6903F00103BB60BB68B9
:10156C00484A7B6A9B08023352F82330FB607B6A43
:10157C0003F003039B000F2202FA03F3DB43FA6828
:10158C001340FB607B68404A934213D07B683F4A10
:10159C0093420DD07B683E4A934207D07B683D4A0C
:1015AC00934201D1032306E0042304E0022302E06A
:1015BC00012300E000237A6A02F0030292009340B8
:1015CC00FA681343FB602F497B6A9B080233FA6865
:1015DC0041F823203B685B6803F48033002B06D072
:1015EC002D4B1A682C49BB6913430B6006E02A4B40
:1015FC001A68BB69DB43284913400B603B685B6886
:10160C0003F40033002B06D0234B5A682249BB69E4
:10161C0013434B6006E0204B5A68BB69DB431E4901
:10162C0013404B603B685B6803F48013002B06D0BF
:10163C00194B9A681849BB6913438B6006E0164B2B
:10164C009A68BB69DB43144913408B603B685B6849
:10165C0003F40013002B21D00F4BDA680E49BB6941
:10166C001343CB6021E000BF0000321000003110AA
:10167C0000002210000021100000121000001110B8
:10168C00001002400000014000080140000C014025
:10169C000010014000140140000401400B4BDA68BB
:1016AC00BB69DB4309491340CB607B6A01337B6226
:1016BC003B681A687B6A22FA03F3002B7FF48EAE28
:1016CC0000BF00BF2C37BD4680BC704700040140F2
:1016DC0080B485B000AF78600B467B807B689A68DD
:1016EC007B881340002B02D00123FB7301E0002305
:1016FC00FB73FB7B18461437BD4680BC704780B427
:10170C0083B000AF78600B467B8013467B707B7890
:10171C00002B03D07A887B681A6103E07B881A045B
:10172C007B681A6100BF0C37BD4680BC7047000057
:10173C0080B586B000AF78607B68002B01D10123A7
:10174C006CE27B681B6803F00103002B00F08780C0
:10175C00924B5B6803F00C03042B0CD08F4B5B6833
:10176C0003F00C03082B12D18C4B5B6803F4803311
:10177C00B3F5803F0BD1894B1B6803F40033002B6E
:10178C006CD07B685B68002B68D1012346E27B68D8
:10179C005B68B3F5803F06D1804B1B687F4A43F4EE
:1017AC00803313602EE07B685B68002B0CD17B4B85
:1017BC001B687A4A23F480331360784B1B68774A92
:1017CC0023F4802313601DE07B685B68B3F5A02FC6
:1017DC000CD1724B1B68714A43F4802313606F4B1E
:1017EC001B686E4A43F4803313600BE06B4B1B6831
:1017FC006A4A23F480331360684B1B68674A23F4EE
:10180C00802313607B685B68002B13D0FFF7A0FC70
:10181C00386108E0FFF79CFC02463B69D31A642B45
:10182C0001D90323FAE15D4B1B6803F40033002B51
:10183C00F0D014E0FFF78CFC386108E0FFF788FC6F
:10184C0002463B69D31A642B01D90323E6E1534BBF
:10185C001B6803F40033002BF0D100E000BF7B6861
:10186C001B6803F00203002B63D04C4B5B6803F046
:10187C000C03002B0BD0494B5B6803F00C03082BBB
:10188C001CD1464B5B6803F48033002B16D1434BC1
:10189C001B6803F00203002B05D07B681B69012B2E
:1018AC0001D00123BAE13D4B1B6823F0F8027B68A1
:1018BC005B69DB00394913430B603AE07B681B69B9
:1018CC00002B20D0364B01221A60FFF741FC386107
:1018DC0008E0FFF73DFC02463B69D31A022B01D905
:1018EC0003239BE12D4B1B6803F00203002BF0D06C
:1018FC002A4B1B6823F0F8027B685B69DB002749E5
:10190C0013430B6015E0264B00221A60FFF720FCF6
:10191C00386108E0FFF71CFC02463B69D31A022B26
:10192C0001D903237AE11D4B1B6803F00203002B42
:10193C00F0D17B681B6803F00803002B3AD07B685E
:10194C009B69002B19D0174B01221A60FFF700FC82
:10195C00386108E0FFF7FCFB02463B69D31A022B07
:10196C0001D903235AE10D4B5B6A03F00203002BF0
:10197C00F0D0012000F0A6FA1CE00A4B00221A60FD
:10198C00FFF7E6FB38610FE0FFF7E2FB02463B692D
:10199C00D31A022B08D9032340E100BF00100240E8
:1019AC0000004242800442429E4B5B6A03F00203F9
:1019BC00002BE9D17B681B6803F00403002B00F0BB
:1019CC00A6800023FB75974BDB6903F08053002B3B
:1019DC000DD1944BDB69934A43F08053D361914B07
:1019EC00DB6903F08053BB60BB680123FB758E4B36
:1019FC001B6803F48073002B18D18B4B1B688A4A2D
:101A0C0043F480731360FFF7A3FB386108E0FFF722
:101A1C009FFB02463B69D31A642B01D90323FDE0DB
:101A2C00814B1B6803F48073002BF0D07B68DB6860
:101A3C00012B06D17B4B1B6A7A4A43F001031362DC
:101A4C002DE07B68DB68002B0CD1764B1B6A754A4A
:101A5C0023F001031362734B1B6A724A23F00403D5
:101A6C0013621CE07B68DB68052B0CD16D4B1B6A89
:101A7C006C4A43F0040313626A4B1B6A694A43F0D5
:101A8C00010313620BE0674B1B6A664A23F00103E8
:101A9C001362644B1B6A634A23F0040313627B6872
:101AAC00DB68002B15D0FFF753FB38610AE0FFF71A
:101ABC004FFB02463B69D31A41F28832934201D95B
:101ACC000323ABE0574B1B6A03F00203002BEED051
:101ADC0014E0FFF73DFB38610AE0FFF739FB0246E3
:101AEC003B69D31A41F28832934201D9032395E022
:101AFC004C4B1B6A03F00203002BEED1FB7D012B38
:101B0C0005D1484BDB69474A23F08053D3617B688E
:101B1C00DB69002B00F08180424B5B6803F00C0307
:101B2C00082B61D07B68DB69022B46D13F4B00222E
:101B3C001A60FFF70DFB386108E0FFF709FB02465E
:101B4C003B69D31A022B01D9032367E0354B1B6881
:101B5C0003F00073002BF0D17B681B6AB3F5803F58
:101B6C0008D1304B5B6823F400327B689B682D49AD
:101B7C0013434B602B4B5B6823F474127B68196A1C
:101B8C007B685B6A0B43274913434B60274B01224D
:101B9C001A60FFF7DDFA386108E0FFF7D9FA024660
:101BAC003B69D31A022B01D9032337E01D4B1B6869
:101BBC0003F00073002BF0D02FE01C4B00221A60B6
:101BCC00FFF7C6FA386108E0FFF7C2FA02463B6934
:101BDC00D31A022B01D9032320E0124B1B6803F00C
:101BEC000073002BF0D118E07B68DB69012B01D16D
:101BFC00012313E00B4B5B68FB60FB6803F4803242
:101C0C007B681B6A9A4206D1FB6803F470127B68EE
:101C1C005B6A9A4201D0012300E000231846183772
:101C2C00BD4680BD00100240007000406000424282
:101C3C0080B584B000AF786039607B68002B01D12F
:101C4C000123D0E06A4B1B6803F007033A689A4201
:101C5C0010D9674B1B6823F0070265493B68134397
:101C6C000B60634B1B6803F007033A689A4201D080
:101C7C000123B8E07B681B6803F00203002B20D023
:101C8C007B681B6803F00403002B05D0594B5B6881
:101C9C00584A43F4E06353607B681B6803F0080305
:101CAC00002B05D0534B5B68524A43F4605353608E
:101CBC00504B5B6823F0F0027B689B684D491343E3
:101CCC004B607B681B6803F00103002B40D07B68E2
:101CDC005B68012B07D1474B1B6803F40033002BC7
:101CEC0015D101237FE07B685B68022B07D1414B48
:101CFC001B6803F00073002B09D1012373E03D4BEB
:101D0C001B6803F00203002B01D101236BE0394B5C
:101D1C005B6823F003027B685B68364913434B60B6
:101D2C00FFF716FAF8600AE0FFF712FA0246FB68B2
:101D3C00D31A41F28832934201D9032353E02D4B3D
:101D4C005B6803F00C027B685B689B009A42EBD1EA
:101D5C00274B1B6803F007033A689A4210D2244BB6
:101D6C001B6823F0070222493B6813430B60204B8E
:101D7C001B6803F007033A689A4201D0012332E052
:101D8C007B681B6803F00403002B08D0194B5B68BD
:101D9C0023F4E0627B68DB68164913434B607B6875
:101DAC001B6803F00803002B09D0124B5B6823F46B
:101DBC0060527B681B69DB000E4913434B6000F0DB
:101DCC0021F802460B4B5B681B0903F00F030A4911
:101DDC00CB5C22FA03F3094A1360094B1B681846C3
:101DEC00FFF774F9002318461037BD4680BD00BFBD
:101DFC000020024000100240482E00080C00002079
:101E0C001000002090B48AB000AF2A4B3C1D0FCBC1
:101E1C0084E80F0040F201233B800023FB61002388
:101E2C00BB6100237B6200237B6100233B62224B5E
:101E3C005B68FB61FB6903F00C03042B02D0082BDD
:101E4C0003D02DE01D4B3B622DE0FB699B0C03F096
:101E5C000F0307F12802134413F8243C7B61FB6940
:101E6C0003F48033002B13D0134B5B685B0C03F033
:101E7C00010307F12802134413F8283CBB617B696A
:101E8C000E4A02FB03F2BB69B2FBF3F37B6204E084
:101E9C007B690B4A02FB03F37B627B6A3B6202E0C9
:101EAC00064B3B6200BF3B6A18462837BD4690BCC8
:101EBC00704700BF382E00080010024000127A0054
:101ECC0000093D0080B485B000AF78600A4B1B68F8
:101EDC000A4AA2FB03235B0A7A6802FB03F3FB604A
:101EEC0000BFFB685A1EFA60002BF9D100BF00BF7F
:101EFC001437BD4680BC70470C000020D34D6210D7
:101F0C0080B582B000AF78607B68002B01D10123D3
:101F1C0041E07B6893F83D30DBB2002B06D17B6847
:101F2C00002283F83C207868FEF7F2FF7B680222DF
:101F3C0083F83D207B681A687B6804331946104689
:101F4C0000F028FC7B68012283F846207B68012284
:101F5C0083F83E207B68012283F83F207B680122B6
:101F6C0083F840207B68012283F841207B680122A2
:101F7C0083F842207B68012283F843207B6801228E
:101F8C0083F844207B68012283F845207B6801227A
:101F9C0083F83D20002318460837BD4680BD00005D
:101FAC0080B485B000AF78607B6893F83D30DBB2CD
:101FBC00012B01D001233AE07B68022283F83D20FB
:101FCC007B681B68DA687B681B6842F00102DA6088
:101FDC007B681B68184A93420ED07B681B68B3F170
:101FEC00804F09D07B681B68144A934204D07B68ED
:101FFC001B68134A934211D17B681B689B6803F0E2
:10200C000703FB60FB68062B10D07B681B681A6803
:10201C007B681B6842F001021A6007E07B681B6852
:10202C001A687B681B6842F001021A60002318468C
:10203C001437BD4680BC7047002C014000040040A2
:10204C000008004080B582B000AF78607B68002B40
:10205C0001D1012341E07B6893F83D30DBB2002BCA
:10206C0006D17B68002283F83C20786800F039F8B0
:10207C007B68022283F83D207B681A687B680433F6
:10208C001946104600F086FB7B68012283F8462037
:10209C007B68012283F83E207B68012283F83F2075
:1020AC007B68012283F840207B68012283F8412061
:1020BC007B68012283F842207B68012283F843204D
:1020CC007B68012283F844207B68012283F8452039
:1020DC007B68012283F83D20002318460837BD4653
:1020EC0080BD80B483B000AF786000BF0C37BD46B4
:1020FC0080BC704780B584B000AF786039603B68B5
:10210C00002B09D17B6893F83E30DBB2012B14BF56
:10211C0001230023DBB222E03B68042B09D17B684E
:10212C0093F83F30DBB2012B14BF01230023DBB249
:10213C0015E03B68082B09D17B6893F84030DBB283
:10214C00012B14BF01230023DBB208E07B6893F85A
:10215C004130DBB2012B14BF01230023DBB2002B77
:10216C0001D001235EE03B68002B04D17B68022286
:10217C0083F83E2013E03B68042B04D17B680222D9
:10218C0083F83F200BE03B68082B04D17B680222CC
:10219C0083F8402003E07B68022283F841207B68AF
:1021AC001B6801223968184600F074FD7B681B68B7
:1021BC001E4A934207D17B681B685A6C7B681B686C
:1021CC0042F400425A647B681B68184A93420ED052
:1021DC007B681B68B3F1804F09D07B681B68144A7D
:1021EC00934204D07B681B68124A934211D17B68DE
:1021FC001B689B6803F00703FB60FB68062B10D081
:10220C007B681B681A687B681B6842F001021A60C5
:10221C0007E07B681B681A687B681B6842F0010248
:10222C001A60002318461037BD4680BD002C0140B3
:10223C00000400400008004080B582B000AF786018
:10224C007B681B681B6903F00203022B22D17B689D
:10225C001B68DB6803F00203022B1BD17B681B6835
:10226C006FF002021A617B6801221A777B681B6887
:10227C009B6903F00303002B03D0786800F06FFA1E
:10228C0005E0786800F062FA786800F071FA7B6813
:10229C0000221A777B681B681B6903F00403042B6C
:1022AC0022D17B681B68DB6803F00403042B1BD171
:1022BC007B681B686FF004021A617B6802221A7734
:1022CC007B681B689B6903F44073002B03D0786810
:1022DC0000F045FA05E0786800F038FA786800F00C
:1022EC0047FA7B6800221A777B681B681B6903F02E
:1022FC000803082B22D17B681B68DB6803F00803FA
:10230C00082B1BD17B681B686FF008021A617B6875
:10231C0004221A777B681B68DB6903F00303002B2C
:10232C0003D0786800F01BFA05E0786800F00EFA2C
:10233C00786800F01DFA7B6800221A777B681B68AE
:10234C001B6903F01003102B22D17B681B68DB6820
:10235C0003F01003102B1BD17B681B686FF010026D
:10236C001A617B6808221A777B681B68DB6903F4A7
:10237C004073002B03D0786800F0F1F905E0786821
:10238C0000F0E4F9786800F0F3F97B6800221A7722
:10239C007B681B681B6903F00103012B0ED17B6862
:1023AC001B68DB6803F00103012B07D17B681B68FA
:1023BC006FF001021A617868FEF7E2FC7B681B681B
:1023CC001B6903F08003802B0ED17B681B68DB68D4
:1023DC0003F08003802B07D17B681B686FF08002B1
:1023EC001A61786800F0E1FC7B681B681B6903F0DC
:1023FC004003402B0ED17B681B68DB6803F0400365
:10240C00402B07D17B681B686FF040021A6178681B
:10241C0000F0B7F97B681B681B6903F02003202BC5
:10242C000ED17B681B68DB6803F02003202B07D1DF
:10243C007B681B686FF020021A61786800F0ACFCB6
:10244C0000BF0837BD4680BD80B584B000AFF860D2
:10245C00B9607A60FB6893F83C30012B01D1022300
:10246C00ACE0FB68012283F83C207B680C2B00F26B
:10247C009F8001A252F823F0B9240008BD25000862
:10248C00BD250008BD250008F9240008BD2500085D
:10249C00BD250008BD2500083B250008BD2500080A
:1024AC00BD250008BD2500087B250008FB681B68BE
:1024BC00B968184600F0D0F9FB681B689A69FB688C
:1024CC001B6842F008029A61FB681B689A69FB68FA
:1024DC001B6822F004029A61FB681B689969BB684F
:1024EC001A69FB681B680A439A6162E0FB681B6807
:1024FC00B968184600F016FAFB681B689A69FB6805
:10250C001B6842F400629A61FB681B689A69FB685D
:10251C001B6822F480629A61FB681B689969BB682E
:10252C001B691A02FB681B680A439A6141E0FB684D
:10253C001B68B968184600F05FFAFB681B68DA691B
:10254C00FB681B6842F00802DA61FB681B68DA69F9
:10255C00FB681B6822F00402DA61FB681B68D9690E
:10256C00BB681A69FB681B680A43DA6121E0FB68E7
:10257C001B68B968184600F0A9FAFB681B68DA6991
:10258C00FB681B6842F40062DA61FB681B68DA695D
:10259C00FB681B6822F48062DA61FB681B68D969EE
:1025AC00BB681B691A02FB681B680A43DA6100E00E
:1025BC0000BFFB68002283F83C200023184610372C
:1025CC00BD4680BD80B584B000AF786039607B6853
:1025DC0093F83C30012B01D10223B3E07B6801223C
:1025EC0083F83C207B68022283F83D207B681B68C3
:1025FC009B68FB60FB6823F07703FB60FB6823F4AC
:10260C007F43FB607B681B68FA689A603B681B68B9
:10261C00B3F5005F3ED0B3F5005F00F28780B3F5F1
:10262C00805F00F08580B3F5805F7FD8702B1AD067
:10263C00702B7BD8602B50D0602B77D8502B3CD094
:10264C00502B73D8402B58D0402B6FD8302B64D0E4
:10265C00302B6BD8202B60D0202B67D8002B5CD074
:10266C00102B5AD062E07B6818683B6899683B680D
:10267C005A683B68DB6800F0EEFA7B681B689B6865
:10268C00FB60FB6843F07703FB607B681B68FA68B0
:10269C009A604EE07B6818683B6899683B685A689A
:1026AC003B68DB6800F0D7FA7B681B689A687B682C
:1026BC001B6842F480429A603BE07B6818683B6878
:1026CC0059683B68DB681A4600F04EFA7B681B6859
:1026DC005021184600F0A5FA2BE07B6818683B687F
:1026EC0059683B68DB681A4600F06CFA7B681B681B
:1026FC006021184600F095FA1BE07B6818683B686F
:10270C0059683B68DB681A4600F02EFA7B681B6838
:10271C004021184600F085FA0BE07B681A683B688C
:10272C001B681946104600F07CFA02E000BF00E07E
:10273C0000BF7B68012283F83D207B68002283F870
:10274C003C20002318461037BD4680BD80B483B0B2
:10275C0000AF786000BF0C37BD4680BC704780B4BA
:10276C0083B000AF786000BF0C37BD4680BC7047AB
:10277C0080B483B000AF786000BF0C37BD4680BC1E
:10278C00704780B483B000AF786000BF0C37BD4693
:10279C0080BC704780B485B000AF786039607B68CE
:1027AC001B68FB607B68294A93420BD07B68B3F1B2
:1027BC00804F07D07B68264A934203D07B68254A1A
:1027CC00934208D1FB6823F07003FB603B685B68A5
:1027DC00FA681343FB607B681C4A93420BD07B68FE
:1027EC00B3F1804F07D07B68194A934203D07B68C2
:1027FC00184A934208D1FB6823F44073FB603B6892
:10280C00DB68FA681343FB60FB6823F080023B68CB
:10281C005B691343FB607B68FA681A603B689A68D3
:10282C007B68DA623B681A687B689A627B68074A45
:10283C00934203D13B681A697B681A637B68012257
:10284C005A6100BF1437BD4680BC7047002C014054
:10285C00000400400008004080B487B000AF7860EE
:10286C0039607B681B6A23F001027B681A627B6803
:10287C001B6A7B617B685B683B617B689B69FB6067
:10288C00FB6823F07003FB60FB6823F00303FB6021
:10289C003B681B68FA681343FB607B6923F00203F7
:1028AC007B613B689B687A6913437B617B681C4A3C
:1028BC0093420CD17B6923F008037B613B68DB6896
:1028CC007A6913437B617B6923F004037B617B682A
:1028DC00134A934211D13B6923F480733B613B69EA
:1028EC0023F400733B613B685B693A6913433B61BA
:1028FC003B689B693A6913433B617B683A695A6050
:10290C007B68FA689A613B685A687B685A637B6893
:10291C007A691A6200BF1C37BD4680BC704700BF85
:10292C00002C014080B487B000AF786039607B68C0
:10293C001B6A23F010027B681A627B681B6A7B613E
:10294C007B685B683B617B689B69FB60FB6823F47D
:10295C00E043FB60FB6823F44073FB603B681B683F
:10296C001B02FA681343FB607B6923F020037B6135
:10297C003B689B681B017A6913437B617B681D4A2A
:10298C0093420DD17B6923F080037B613B68DB684C
:10299C001B017A6913437B617B6923F040037B61E4
:1029AC007B68144A934213D13B6923F480633B61E7
:1029BC003B6923F400633B613B685B699B003A69AC
:1029CC0013433B613B689B699B003A6913433B6132
:1029DC007B683A695A607B68FA689A613B685A6806
:1029EC007B689A637B687A691A6200BF1C37BD46A4
:1029FC0080BC7047002C014080B487B000AF786079
:102A0C0039607B681B6A23F480727B681A627B686E
:102A1C001B6A7B617B685B683B617B68DB69FB6085
:102A2C00FB6823F07003FB60FB6823F00303FB607F
:102A3C003B681B68FA681343FB607B6923F40073E3
:102A4C007B613B689B681B027A6913437B617B68E3
:102A5C001D4A93420DD17B6923F400637B613B6873
:102A6C00DB681B027A6913437B617B6923F4806307
:102A7C007B617B68144A934213D13B6923F48053E6
:102A8C003B613B6923F400533B613B685B691B0171
:102A9C003A6913433B613B689B691B013A691343D9
:102AAC003B617B683A695A607B68FA68DA613B681B
:102ABC005A687B68DA637B687A691A6200BF1C37D4
:102ACC00BD4680BC704700BF002C014080B487B06D
:102ADC0000AF786039607B681B6A23F480527B6896
:102AEC001A627B681B6A3B617B685B687B617B68F5
:102AFC00DB69FB60FB6823F4E043FB60FB6823F4B9
:102B0C004073FB603B681B681B02FA681343FB6055
:102B1C003B6923F400533B613B689B681B033A6998
:102B2C0013433B617B680F4A934209D17B6923F4C1
:102B3C0080437B613B685B699B017A6913437B61D2
:102B4C007B687A695A607B68FA68DA613B685A6814
:102B5C007B681A647B683A691A6200BF1C37BD46F1
:102B6C0080BC7047002C014080B487B000AFF86087
:102B7C00B9607A60FB681B6A7B61FB681B6A23F097
:102B8C000102FB681A62FB689B693B613B6923F09D
:102B9C00F0033B617B681B013A6913433B617B6922
:102BAC0023F00A037B617A69BB6813437B61FB6882
:102BBC003A699A61FB687A691A6200BF1C37BD4694
:102BCC0080BC704780B487B000AFF860B9607A60A1
:102BDC00FB681B6A23F01002FB681A62FB689B6996
:102BEC007B61FB681B6A3B617B6923F470437B61EF
:102BFC007B681B037A6913437B613B6923F0A00359
:102C0C003B61BB681B013A6913433B61FB687A6902
:102C1C009A61FB683A691A6200BF1C37BD4680BCDA
:102C2C00704780B485B000AF786039607B689B6872
:102C3C00FB60FB6823F07003FB603A68FB6813438E
:102C4C0043F00703FB607B68FA689A6000BF143797
:102C5C00BD4680BC704780B487B000AFF860B960E7
:102C6C007A603B60FB689B687B617B6923F47F43E4
:102C7C007B613B681A027B681A43BB6813437A6911
:102C8C0013437B61FB687A699A6000BF1C37BD46B1
:102C9C0080BC704780B487B000AFF860B9607A60D0
:102CAC00BB6803F01F03012202FA03F37B61FB688C
:102CBC001A6A7B69DB431A40FB681A62FB681A6A62
:102CCC00BB6803F01F03796801FA03F31A43FB682E
:102CDC001A6200BF1C37BD4680BC704780B485B0FB
:102CEC0000AF786039607B6893F83C30012B01D1E0
:102CFC00022346E07B68012283F83C207B68022299
:102D0C0083F83D207B681B685B68FB607B681B68F5
:102D1C009B68BB60FB6823F07003FB603B681B681F
:102D2C00FA681343FB607B681B68FA685A607B681F
:102D3C001B68164A93420ED07B681B68B3F1804F18
:102D4C0009D07B681B68124A934204D07B681B68CD
:102D5C00104A93420CD1BB6823F08003BB603B68E4
:102D6C005B68BA681343BB607B681B68BA689A607F
:102D7C007B68012283F83D207B68002283F83C208D
:102D8C00002318461437BD4680BC7047002C014008
:102D9C00000400400008004080B483B000AF7860AD
:102DAC0000BF0C37BD4680BC704780B483B000AF09
:102DBC00786000BF0C37BD4680BC704770B50026EC
:102DCC000C4D0D4C641BA410A64209D100F022F846
:102DDC0000260A4D0A4C641BA410A64205D170BDF6
:102DEC0055F8043B98470136EEE755F8043B9847F5
:102DFC000136F2E7582E0008582E0008582E00080D
:102E0C005C2E000803460244934200D1704703F83D
:102E1C00011BF9E7F8B500BFF8BC08BC9E4670472B
:0C2E2C00F8B500BFF8BC08BC9E4670471B
:102E380002030405060708090A0B0C0D0E0F1010F3
:102E48000000000000000000010203040607080952
:042E5800310100083C
:042E5C000D0100085C
:102E600088130000A00F0000E80300000024F40015
:082E7000100000000100000049
:04000005080010617E
:00000001FF
