:020000040800F2
:100000000050002069200008791F00087F1F0008A9
:10001000851F00088B1F0008911F000800000000CA
:10002000000000000000000000000000971F000812
:10003000A31F000800000000AF1F0008BB1F00083E
:10004000B1200008B1200008B1200008B12000084C
:10005000B1200008B1200008B1200008B12000083C
:10006000B1200008B1200008B1200008B12000082C
:10007000B1200008B1200008B1200008B12000081C
:10008000B1200008B1200008B1200008B12000080C
:10009000B1200008B1200008B1200008B1200008FC
:1000A000B1200008B1200008B1200008B1200008EC
:1000B000C91F0008B1200008B1200008B1200008C5
:1000C000B1200008B1200008B1200008B1200008CC
:1000D000B1200008B1200008DD1F0008B120000891
:1000E000B1200008B1200008B12000080000000085
:1000F0000000000000000000000000000000000000
:0C01000000000000000000005FF808F1A3
:1001100010B5054C237833B9044B13B10448AFF341
:1001200000800123237010BD7C000020000000002F
:100130009452000808B5034B1BB103490348AFF3C1
:10014000008008BD000000008000002094520008DC
:100150004FF0FF0C1CEAD0521EBF1CEAD15392EAAA
:100160000C0F93EA0C0F6FD01A4480EA010C400286
:1001700018BF5FEA41211ED04FF0006343EA5010E0
:1001800043EA5111A0FB01310CF00040B1F5000F22
:100190003EBF490041EAD3715B0040EA010062F1D1
:1001A0007F02FD2A1DD8B3F1004F40EBC25008BFBB
:1001B00020F00100704790F0000F0CF0004C08BFD9
:1001C00049024CEA502040EA51207F3AC2BFD2F1A6
:1001D000FF0340EAC250704740F400004FF00003B4
:1001E000013A5DDC12F1190FDCBF00F000407047EE
:1001F000C2F10002410021FA02F1C2F1200200FA2C
:1002000002FC5FEA310040F1000053EA4C0308BFF2
:1002100020EADC70704792F0000F00F0004C02BF43
:10022000400010F4000F013AF9D040EA0C0093F0BE
:10023000000F01F0004C02BF490011F4000F013B18
:10024000F9D041EA0C018FE70CEAD15392EA0C0F86
:1002500018BF93EA0C0F0AD030F0004C18BF31F0F1
:10026000004CD8D180EA010000F00040704790F0C7
:10027000000F17BF90F0004F084691F0000F91F06B
:10028000004F14D092EA0C0F01D142020FD193EA31
:100290000C0F03D14B0218BF084608D180EA0100B9
:1002A00000F0004040F0FE4040F40000704740F095
:1002B000FE4040F44000704781F0004102E000BF82
:1002C00083F0004330B54FEA41044FEA430594EA16
:1002D000050F08BF90EA020F1FBF54EA000C55EA51
:1002E000020C7FEA645C7FEA655C00F0E2804FEA22
:1002F0005454D4EB5555B8BF6D420CDD2C4480EA04
:10030000020281EA030382EA000083EA010180EA33
:10031000020281EA0303362D88BF30BD11F0004F81
:100320004FEA01314FF4801C4CEA113102D04042B7
:1003300061EB410113F0004F4FEA03334CEA1333F2
:1003400002D0524263EB430394EA050F00F0A7800A
:10035000A4F10104D5F1200E0DDB02FA0EFC22FA05
:1003600005F2801841F1000103FA0EF2801843FAF9
:1003700005F359410EE0A5F120050EF1200E012AEA
:1003800003FA0EFC28BF4CF0020C43FA05F3C01828
:1003900051EBE37101F0004507D54FF0000EDCF1A1
:1003A000000C7EEB00006EEB0101B1F5801F1BD34A
:1003B000B1F5001F0CD349085FEA30004FEA3C0C4E
:1003C00004F101044FEA445212F5800F80F09A8044
:1003D000BCF1004F08BF5FEA500C50F1000041EB48
:1003E000045141EA050130BD5FEA4C0C404141EB4C
:1003F0000101013C28BFB1F5801FE9D291F0000F47
:1004000004BF01460020B1FA81F308BF2033A3F1F5
:100410000B03B3F120020CDA0C3208DD02F1140CEC
:10042000C2F10C0201FA0CF021FA02F10CE002F127
:100430001402D8BFC2F1200C01FA02F120FA0CFC20
:10044000DCBF41EA0C019040E41AA2BF01EB045169
:10045000294330BD6FEA04041F3C1CDA0C340EDC67
:1004600004F11404C4F1200220FA04F001FA02F3AA
:1004700040EA030021FA04F345EA030130BDC4F168
:100480000C04C4F1200220FA02F001FA04F340EA5D
:100490000300294630BD21FA04F0294630BD94F00E
:1004A000000F83F4801306BF81F480110134013DF5
:1004B0004EE77FEA645C18BF7FEA655C29D094EA66
:1004C000050F08BF90EA020F05D054EA000C04BFE4
:1004D0001946104630BD91EA030F1EBF00210020CF
:1004E00030BD5FEA545C05D14000494128BF41F06E
:1004F000004130BD14F580043CBF01F5801130BDD2
:1005000001F0004545F0FE4141F470014FF000005C
:1005100030BD7FEA645C1ABF194610467FEA655C0D
:100520001CBF0B46024650EA013406BF52EA0335AF
:1005300091EA030F41F4002130BD00BF90F0000F9D
:1005400004BF0021704730B54FF4806404F13204D9
:100550004FF000054FF0000150E700BF90F0000F92
:1005600004BF0021704730B54FF4806404F13204B9
:1005700010F0004548BF40424FF000013EE700BF89
:1005800042004FEAE2014FEA31014FEA02701FBF19
:1005900012F07F4393F07F4F81F06051704732F04B
:1005A0007F4208BF704793F07F4F04BF41F40021A2
:1005B000704730B54FF4607401F0004521F0004100
:1005C0001CE700BF50EA010208BF704730B54FF08A
:1005D00000050AE050EA010208BF704730B511F08B
:1005E000004502D5404261EB41014FF4806404F1C3
:1005F00032045FEA915C3FF4D8AE4FF003025FEA49
:10060000DC0C18BF03325FEADC0C18BF033202EBCC
:10061000DC02C2F1200300FA03FC20FA02F001FA26
:1006200003FE40EA0E0021FA02F11444BDE600BFC9
:1006300070B54FF0FF0C4CF4E06C1CEA11541DBF78
:100640001CEA135594EA0C0F95EA0C0F00F0DEF843
:100650002C4481EA030621EA4C5123EA4C5350EA28
:10066000013518BF52EA033541F4801143F4801379
:1006700038D0A0FB02CE4FF00005E1FB02E506F00A
:100680000042E0FB03E54FF00006E1FB03569CF05F
:10069000000F18BF4EF0010EA4F1FF04B6F5007F65
:1006A00064F5407404D25FEA4E0E6D4146EB0606D7
:1006B00042EAC62141EA55514FEAC52040EA5E5060
:1006C0004FEACE2EB4F1FD0C88BFBCF5E06F1ED80A
:1006D000BEF1004F08BF5FEA500E50F1000041EB41
:1006E000045170BD06F0004646EA010140EA0200EE
:1006F00081EA0301B4EB5C04C2BFD4EB0C0541EA10
:10070000045170BD41F480114FF0000E013C00F324
:10071000AB8014F1360FDEBF002001F0004170BD48
:10072000C4F10004203C35DA0C341BDC04F1140461
:10073000C4F1200500FA05F320FA04F001FA05F2ED
:1007400040EA020001F0004221F0004110EBD370BA
:1007500021FA04F642EB06015EEA430E08BF20EAE6
:10076000D37070BDC4F10C04C4F1200500FA04F389
:1007700020FA05F001FA04F240EA020001F000411B
:1007800010EBD37041F100015EEA430E08BF20EA8E
:10079000D37070BDC4F1200500FA05F24EEA020ED6
:1007A00020FA04F301FA05F243EA020321FA04F005
:1007B00001F0004121FA04F220EA020000EBD370BC
:1007C0005EEA430E08BF20EAD37070BD94F0000FBC
:1007D0000FD101F00046400041EB010111F4801FF0
:1007E00008BF013CF7D041EA060195F0000F18BFA1
:1007F000704703F00046520043EB030313F4801FDD
:1008000008BF013DF7D043EA0603704794EA0C0F96
:100810000CEA135518BF95EA0C0F0CD050EA4106AC
:1008200018BF52EA4306D1D181EA030101F0004129
:100830004FF0000070BD50EA410606BF1046194651
:1008400052EA430619D094EA0C0F02D150EA01365D
:1008500013D195EA0C0F05D152EA03361CBF10469E
:1008600019460AD181EA030101F0004141F0FE413D
:1008700041F470014FF0000070BD41F0FE4141F4C1
:10088000780170BD70B54FF0FF0C4CF4E06C1CEAC1
:1008900011541DBF1CEA135594EA0C0F95EA0C0F76
:1008A00000F0A7F8A4EB050481EA030E52EA033531
:1008B0004FEA013100F088804FEA03334FF0805552
:1008C00045EA131343EA12634FEA022245EA11157F
:1008D00045EA10654FEA00260EF000419D4208BF30
:1008E000964244F1FD0404F5407402D25B084FEADD
:1008F0003202B61A65EB03055B084FEA32024FF489
:1009000080104FF4002CB6EB020E75EB030E22BFE5
:10091000B61A754640EA0C005B084FEA3202B6EBA5
:10092000020E75EB030E22BFB61A754640EA5C0054
:100930005B084FEA3202B6EB020E75EB030E22BFE4
:10094000B61A754640EA9C005B084FEA3202B6EBE5
:10095000020E75EB030E22BFB61A754640EADC00A4
:1009600055EA060E18D04FEA051545EA16754FEA06
:1009700006164FEAC30343EA52734FEAC2025FEA24
:100980001C1CC0D111F4801F0BD141EA00014FF0B3
:1009900000004FF0004CB6E711F4801F04BF014384
:1009A0000020B4F1FD0C88BFBCF5E06F3FF6AFAEA0
:1009B000B5EB030C04BFB6EB020C5FEA500C50F130
:1009C000000041EB045170BD0EF0004E4EEA1131B3
:1009D00014EB5C04C2BFD4EB0C0541EA045170BDBA
:1009E00041F480114FF0000E013C90E645EA060EFE
:1009F0008DE60CEA135594EA0C0F08BF95EA0C0F2C
:100A00003FF43BAF94EA0C0F0AD150EA01347FF473
:100A100034AF95EA0C0F7FF425AF104619462CE74A
:100A200095EA0C0F06D152EA03353FF4FDAE1046AD
:100A3000194622E750EA410618BF52EA43067FF4FE
:100A4000C5AE50EA41047FF40DAF52EA43057FF48E
:100A5000EBAE12E74FEA410212F5001215D211D5A2
:100A60006FF47873B3EB625212D94FEAC12343F0AB
:100A7000004343EA505311F0004F23FA02F018BF2D
:100A8000404270474FF00000704750EA013005D1F6
:100A900011F0004008BF6FF0004070474FF00000B9
:100AA000704700BF4FEA4102B2F1E04324BFB3F503
:100AB000001CDCF1FE5C0DD901F0004C4FEAC002D5
:100AC0004CEA5070B2F1004F40EB830008BF20F0B9
:100AD0000100704711F0804F21D113F13872BCBF73
:100AE00001F00040704741F480114FEA5252C2F1C8
:100AF0001802C2F1200C10FA0CF320FA02F018BF11
:100B000040F001004FEAC1234FEAD32303FA0CFC63
:100B100040EA0C0023FA02F34FEA4303CCE77FEAF2
:100B2000625307D150EA01331EBF4FF0FE4040F43C
:100B30004000704701F0004040F0FE4040F40000EB
:100B4000704700BF4FEA4002B2F1FE4F0FD34FF0A3
:100B50009E03B3EB12620DD94FEA002343F000432A
:100B600010F0004F23FA02F018BF404270474FF0D8
:100B70000000704712F1610F01D1420205D110F05F
:100B8000004008BF6FF0004070474FF00000704712
:100B900080B500AF054B01221A60054B01221A6097
:100BA0000A2000F041F900BF80BD00BFE000002036
:100BB000E400002080B582B000AF0346FB71174B04
:100BC0001B68012B26D1FA2000F0BAF9144B1B68E0
:100BD000012B17D1FB79002B04D100F041F800F074
:100BE0007BF811E0FB79012B04D100F04DF800F007
:100BF00083F809E0FB79022B06D100F059F800F0E8
:100C00008BF801E000F00EF8054B1B68C3F10103FF
:100C1000034A136000BF0837BD4680BDC8000020EE
:100C20009800002080B500AF00224FF480610A4890
:100C300001F0FBFD00220821084801F0F6FD00222A
:100C40002021064801F0F1FD00221021034801F0A7
:100C5000ECFD00BF80BD00BF00080140000C01405A
:100C600080B500AF01224FF48061054801F0DDFD41
:100C700000220821034801F0D8FD00BF80BD00BF5D
:100C800000080140000C014080B500AF00224FF485
:100C90008061054801F0C9FD01220821034801F0E7
:100CA000C4FD00BF80BD00BF00080140000C014032
:100CB00080B500AF01224FF48061054801F0B5FD19
:100CC00001220821034801F0B0FD00BF80BD00BF34
:100CD00000080140000C014080B500AF0122202136
:100CE000044801F0A2FD00221021024801F09DFD00
:100CF00000BF80BD000C014080B500AF0022202164
:100D0000044801F092FD01221021024801F08DFDFE
:100D100000BF80BD000C014080B500AF0122202142
:100D2000044801F082FD01221021024801F07DFDFE
:100D300000BF80BD000C014080B500AF01224FF420
:100D40008061054801F071FD00224FF48071034875
:100D500001F06BFD00BF80BD000C014000080140A8
:100D600080B500AF00224FF48061054801F05DFDC1
:100D700001224FF48071034801F057FD00BF80BD90
:100D8000000C01400008014080B500AF00224FF484
:100D90008061054801F049FD00224FF4807103484D
:100DA00001F043FD00BF80BD000C01400008014080
:100DB00080B483B000AF78607B68094A82FB03127D
:100DC0009210DB17D31A074A1360074B00221A60F0
:100DD000064B00221A6000BF0C37BD4680BC70472E
:100DE00067666666D8000020D4000020DC00002082
:100DF00080B483B000AF78607B68084A82FB03123E
:100E00009210DB17D31A064A1360064B00221A60B1
:100E100000BF0C37BD4680BC704700BF6766666682
:100E2000CC000020D000002080B483B000AF7860F8
:100E30007B68084A82FB03129210DB17D31A064A1A
:100E40001360064B00221A6000BF0C37BD4680BC01
:100E5000704700BF676666669C000020A000002007
:100E600080B483B000AF78607B68084A82FB0312CD
:100E70009210DB17D31A064A1360064B00221A6041
:100E800000BF0C37BD4680BC704700BF6766666612
:100E9000A4000020A800002080B483B000AF7860D8
:100EA0007B68084A82FB03129210DB17D31A064AAA
:100EB0001360064B00221A6000BF0C37BD4680BC91
:100EC000704700BF67666666AC000020B000002077
:100ED00080B483B000AF78607B68084A82FB03125D
:100EE0009210DB17D31A064A1360064B00221A60D1
:100EF00000BF0C37BD4680BC704700BF67666666A2
:100F0000B4000020B800002080B483B000AF786047
:100F10007B68084A82FB03129210DB17D31A064A39
:100F20001360064B00221A6000BF0C37BD4680BC20
:100F3000704700BF67666666BC000020C0000020E6
:100F400080B483B000AF78607B68084A82FB0312EC
:100F50009210DB17D31A064A1360064B00221A6060
:100F600000BF0C37BD4680BC704700BF6766666631
:100F7000C4000020C800002080B400AF454B1B68AF
:100F8000002B12DD434B1B68013B424A1360414B6F
:100F90001B680A2B02DC404B01221A603D4B1B6888
:100FA000002B02D13D4B01221A603D4B1B68002BE8
:100FB0000BDD3B4B1B68013B394A1360384B1B6808
:100FC000002B02D1374B01221A60374B1B68002BD4
:100FD0000BDD354B1B68013B334A1360324B1B68FA
:100FE000002B02D1314B01221A60314B1B68002BC0
:100FF0000BDD2F4B1B68013B2D4A13602C4B1B68EC
:10100000002B02D12B4B01221A602B4B1B68002BAB
:101010000BDD294B1B68013B274A1360264B1B68DD
:10102000002B02D1254B01221A60254B1B68002B97
:101030000BDD234B1B68013B214A1360204B1B68CF
:10104000002B02D11F4B01221A601F4B1B68002B83
:101050000BDD1D4B1B68013B1B4A13601A4B1B68C1
:10106000002B02D1194B01221A60194B1B68002B6F
:101070000BDD174B1B68013B154A1360144B1B68B3
:10108000002B02D1134B01221A6000BFBD4680BC69
:10109000704700BFD8000020DC000020D4000020F2
:1010A0009C000020A0000020A4000020A800002038
:1010B000AC000020B0000020B4000020B8000020E8
:1010C000BC000020C0000020C4000020C800002098
:1010D000CC000020D000002080B582B000AF786046
:1010E0007B68032B22D801A252F823F0FD100008E0
:1010F00009110008151100082111000802210E48ED
:1011000001F07CFB034613E010210B4801F076FB55
:1011100003460DE00121094801F070FB034607E09A
:101120000121054801F06AFB034601E000BF0023EE
:1011300018460837BD4680BD00080140000C01403C
:1011400080B483B000AF7860044A7B68012142F824
:10115000231000BF0C37BD4680BC7047340100200F
:1011600080B483B000AF7860094A7B6852F82330BE
:10117000012B06D1064A7B68002142F82310012387
:1011800000E0002318460C37BD4680BC704700BF06
:101190003401002080B582B000AF00237B6063E0A3
:1011A000354A7B6852F8232034497B6841F8232074
:1011B000334A7B6852F823202F497B6841F823206B
:1011C0007868FFF789FF02462D497B6841F82320A4
:1011D000294A7B6852F8232028497B6851F823303C
:1011E0009A423ED1244A7B6852F8232024497B68E6
:1011F00051F823309A4234D1224A7B6852F8232096
:101200001F497B6851F823309A4216D01C4A7B68EC
:1012100052F823201B497B6841F82320184A7B6839
:1012200052F82330002B1CD1174A7B68C82142F8A2
:1012300023107868FFF784FF13E0134A7B6852F8A5
:1012400023305A1E10497B6841F823200E4A7B68E0
:1012500052F82330002B04D10A4A7B68012142F85E
:1012600023107B6801337B607B68032B98DD00BF14
:1012700000BF0837BD4680BD2401002014010020B6
:1012800044010020040100205401002080B400AF7C
:10129000044B01221A60044B00221A6000BFBD46B5
:1012A00080BC7047E8000020EC00002080B500AF53
:1012B000044B00221A60044B00221A60FFF764FD01
:1012C00000BF80BDE8000020EC000020000000000E
:1012D000B0B582B000AFB84B1B68013B032B00F2E6
:1012E0008B8001A252F823F0F91200080F130008B6
:1012F0005D130008AB130008FFF794FCAE4B02220D
:101300001A60AE4B1B681846FFF78EFD7BE0FFF7B7
:10131000A7FCAB4B1B68012B07D1A74B03221A601C
:10132000A84B1B681846FFF77FFD0020FFF718FF4A
:101330000346012B09D1A04B0C221A60A24B0C22B0
:101340001A6043F69820FFF76FFD0320FFF708FFB0
:101350000346012B52D1FFF799FF4FE0FFF794FCB2
:10136000974B1B68012B07D1934B04221A60974BB4
:101370001B681846FFF758FD0020FFF7F1FE0346F3
:10138000012B09D18C4B0D221A608F4B0D221A6054
:1013900043F69820FFF748FD0320FFF7E1FE0346E0
:1013A000012B2DD1FFF772FF2AE0FFF781FC844B60
:1013B0001B68012B07D1804B02221A607F4B1B68F0
:1013C0001846FFF731FD0020FFF7CAFE0346012B48
:1013D00009D1794B0E221A607B4B0E221A6043F61C
:1013E0009820FFF721FD0320FFF7BAFE0346012BEB
:1013F00008D1FFF74BFF05E000BF04E000BF02E0AB
:1014000000BF00E000BF704B1B68013B032B00F2E4
:10141000C78001A252F823F02914000849140008DB
:101420007F1400086D150008FFF7FCFB664B0322D4
:101430001A60644B1B681846FFF766FD5F4B1B681C
:10144000184600F089F9D2E0614B1B68012B01D1ED
:10145000FFF772FCFFF740FC5E4B1B68012B40F06E
:10146000A180594B03221A60564B1B681846FFF7A0
:101470004BFD544B1B68184600F06EF992E0544B3C
:101480001B68012B52D1FFF76BFC534B1B68012BE0
:101490004CD1524B1B681846FFF760F804460D46C6
:1014A000484B1B681846FFF759F802460B46204682
:1014B0002946FFF7E7F902460B4610461946FFF7A3
:1014C000F1FA03467B603F4B1B681846FFF746F86E
:1014D00037A3D3E90023FFF7ABF802460B461446C7
:1014E0001D467868FFF74CF802460B462046294611
:1014F000FFF79EF802460B4610461946FFF7AAFA78
:1015000003461846FFF774FC354B1B68012B0DD1C1
:1015100034497868FEF71CFE03461846FFF712FBB5
:101520000346C3F59673184600F078F9FFF7E4FB1D
:10153000284B1B68012B37D12B4B1B68002B02DD7E
:10154000FFF7B4FE04E0284B1B680133264A136002
:101550001D4B04221A601D4B1B681846FFF7D4FC74
:101560001A4B1B68184600F0F7F81DE0FFF7D4FB94
:10157000174B1B68012B01D1FFF7DEFB154B1B68D6
:10158000012B33D1104B02221A600C4B1B681846FA
:10159000FFF7BAFC094B1B68184600F0DDF825E0A0
:1015A00000BF24E000BF22E000BF20E0AFF30080D6
:1015B000333333333333C33FE000002000000020D7
:1015C000A000002004000020E4000020080000200B
:1015D000E8000020C0000020D0000020F000002023
:1015E000D400002000007A43EC00002000BF00F08F
:1015F000C1F800BF0837BD46B0BD00BF80B500AF21
:101600003A4B1B680E2B46D00E2B66DC0C2B02D0FF
:101610000D2B1ED061E00020FFF7CCFA00F030FB6C
:10162000334B1B68012B01D1FFF7B2FA0020FFF703
:1016300097FD0346012B52D12C4B0D221A6043F625
:101640009820FFF7F1FB2B4B1B68184600F084F83D
:1016500045E00120FFF7AEFA00F012FB244B1B68B7
:10166000012B05D1214B01221A60234B01221A6064
:101670000020FFF775FD0346012B32D11B4B0E22D4
:101680001A6043F69820FFF7CFFB1C4B1B681846E7
:1016900000F062F825E00220FFF78CFA00F0F0FA83
:1016A000134B1B68012B05D1104B01221A60124B02
:1016B00001221A600020FFF753FD0346012B12D1CF
:1016C0000A4B0C221A6043F69820FFF7ADFB0C4B37
:1016D0001B68184600F040F805E000BF04E000BFBA
:1016E00002E000BF00E000BF00BF80BDE0000020BE
:1016F000A000002004000020E400002008000020DA
:101700000000002080B483B000AF7860034A7B689B
:10171000136000BF0C37BD4680BC7047000000203E
:1017200080B483B000AF7860034A7B68136000BF69
:101730000C37BD4680BC70470400002080B483B0E5
:1017400000AF7860034A7B68136000BF0C37BD466A
:1017500080BC70470800002080B483B000AF786080
:10176000034A7B68136000BF0C37BD4680BC7047DE
:10177000F000002080B500AF094B1B68012B0DD194
:101780004FF47A70FFF788FB064B1B68002B05DDD2
:10179000044B1B68A3F57A73024A136000BF80BD37
:1017A000B0000020F000002080B582B000AF78606B
:1017B0007B681B68134A93421FD1322301221249CE
:1017C000124802F010FC124B1B785A1CD1B2104A7E
:1017D00011701A460C4B19780E4B99540C4B1B7810
:1017E0001E2B02D10A4B00221A700B4B01221A70D9
:1017F00001220549054802F088FC00BF0837BD46B4
:1018000080BD00BF00440040F4000020140200200E
:10181000F5000020AC010020F600002080B582B069
:1018200000AF7860054B1B687A685A63C820FFF7E1
:10183000BFFA00BF0837BD4680BD00BF640100206D
:1018400080B400AF034B1B6800225A6300BFBD4643
:1018500080BC70476401002080B586B000AF00F006
:1018600029FC00F05FF800F08BF900F0E9F800F0D7
:101870009BF800F05BF90021224801F003FD2248AB
:1018800001F056FC01222149214802F03EFCFFF7FD
:101890007FF90A20FFF7ACFA0A20FFF789FA0A203D
:1018A000FFF7DEFA0A20FFF7F7FA0A20FFF710FB2E
:1018B0000A20FFF745FBFFF70BFDFFF79FFE154BD7
:1018C0001B68012B17D14FF47A70FFF701FB124B05
:1018D0001B68013B104A13600F4B1A683B1D0F49F0
:1018E000184603F09DF803469AB2391D4FF47A73F7
:1018F000074802F078FB0A4B1B68012BDBD1FFF78E
:101900009FFFD8E764010020CC010020F4000020F4
:1019100014020020B8000020F0000020AC520008A3
:10192000DC00002080B590B000AF07F1180328223A
:101930000021184603F06CF83B1D00221A605A6023
:101940009A60DA601A610223BB610123BB62102333
:10195000FB6202237B630023BB634FF46013FB63D2
:1019600007F11803184600F079FF0346002B01D059
:1019700000F080F90F237B600223BB600023FB6033
:101980004FF480633B6100237B613B1D02211846BD
:1019900001F0E4F90346002B01D000F06BF900BF21
:1019A0004037BD4680BD000080B586B000AF07F16E
:1019B000080300221A605A609A60DA603B460022EF
:1019C0001A605A601D4B4FF080421A601B4B3F2239
:1019D0005A601A4B00229A60184B42F20F72DA607A
:1019E000164B00221A61154B00229A61134801F030
:1019F0004FFB0346002B01D000F03CF94FF480531D
:101A0000BB6007F1080319460C4801F0A3FE03462A
:101A1000002B01D000F02EF900233B6000237B60F7
:101A20003B461946054802F021FA0346002B01D037
:101A300000F020F900BF1837BD4680BDCC01002062
:101A400080B58EB000AF07F1280300221A605A60FB
:101A50009A60DA6007F1200300221A605A603B1D89
:101A600000221A605A609A60DA601A615A619A61BB
:101A70002C4B2D4A1A602B4B3F225A60294B0022D7
:101A80009A60284B40F2E732DA60264B00221A6156
:101A9000244B00229A61234801F0FAFA0346002BF6
:101AA00001D000F0E7F84FF48053BB6207F1280340
:101AB00019461C4801F04EFE0346002B01D000F0F1
:101AC000D9F8184801F086FB0346002B01D000F03E
:101AD000D1F800233B6200237B6207F12003194603
:101AE000104802F0C3F90346002B01D000F0C2F801
:101AF00060237B600023BB600023FB6000237B61CD
:101B00003B1D00221946074801F066FD0346002BE5
:101B100001D000F0AFF8034800F0AAF900BF383751
:101B2000BD4680BD640100200004004080B500AFC8
:101B3000114B124A1A60104B4FF416525A600E4B5A
:101B400000229A600C4B0022DA600B4B00221A61D3
:101B5000094B0C225A61084B00229A61064B002265
:101B6000DA61054802F0F2F90346002B01D000F0DB
:101B700081F800BF80BD00BF140200200044004077
:101B800080B586B000AF07F1080300221A605A60E2
:101B90009A60DA602E4B9B692D4A43F004039361EF
:101BA0002B4B9B6903F004037B607B68284B9B698C
:101BB000274A43F008039361254B9B6903F0080310
:101BC0003B603B6800224FF4E761224800F02DFEA5
:101BD00000224FF4A061204800F027FE1323BB60D1
:101BE0000023FB6001233B6107F1080319461A48F3
:101BF00000F080FC0123BB600023FB6001233B61FC
:101C000007F108031946134800F074FC4FF4E7632A
:101C1000BB600123FB6000233B6102237B6107F172
:101C2000080319460B4800F065FC4FF4A063BB6045
:101C30000123FB6000233B6102237B6107F1080362
:101C40001946054800F056FC00BF1837BD4680BD58
:101C500000100240000C01400008014080B582B035
:101C600000AF7860FFF788F9FFF794FA00BF0837F4
:101C7000BD4680BD80B400AF72B600BFFEE7000075
:101C800080B500AF3F4B1B680E2B48D00E2B67DC96
:101C90000C2B02D00D2B21D062E00120FFF760FA5F
:101CA0000346012B5ED1384B1B6803F57A72374B24
:101CB00083FB02135913D317CB1A354901FB03F3E6
:101CC000D31A314A1360304B1B681846FFF71AFDD0
:101CD0002D4B1B681846FFF73FFD43E00120FFF73F
:101CE0003FFA0346012B3FD12A4B1B6803F57A725A
:101CF000264B83FB02135913D317CB1A244901FB3C
:101D000003F3D31A234A1360224B1B681846FFF7CC
:101D100007FD204B1B681846FFF71EFD24E001203D
:101D2000FFF71EFA0346012B20D11B4B1B6803F55E
:101D30007A72164B83FB02135913D317CB1A14492B
:101D400001FB03F3D31A144A1360134B1B681846A4
:101D5000FFF7F4FC104B1B681846FFF7FDFC05E08D
:101D600000BF04E000BF02E000BF00E000BF0220AF
:101D7000FFF7F6F90346012B01D1FEF709FF00BF7B
:101D800080BD00BFE00000200000002089B5F814ED
:101D9000A0860100040000200800002080B485B067
:101DA00000AF154B9B69144A43F001039361124B3A
:101DB0009B6903F00103BB60BB680F4BDB690E4AF4
:101DC00043F08053D3610C4BDB6903F080537B609D
:101DD0007B680A4B5B68FB60FB6823F0E063FB6099
:101DE000FB6843F00073FB60044AFB68536000BF6C
:101DF0001437BD4680BC704700100240000001400F
:101E000080B584B000AF78607B681B68B3F1804F09
:101E100014D1154BDB69144A43F00103D361124B13
:101E2000DB6903F00103FB60FB68002200211C203A
:101E300000F079FA1C2000F092FA10E07B681B6831
:101E40000A4A93420BD1084BDB69074A43F002036D
:101E5000D361054BDB6903F00203BB60BB6800BFC5
:101E60001037BD4680BD00BF001002400004004096
:101E700080B588B000AF786007F1100300221A60C7
:101E80005A609A60DA607B681B680F4A934217D1E8
:101E90000E4B9B690D4A43F0040393610B4B9B6906
:101EA00003F00403FB60FB6840233B6102237B617A
:101EB0000223FB6107F110031946054800F01AFBE5
:101EC00000BF2037BD4680BD000400400010024026
:101ED0000008014080B588B000AF786007F11003BA
:101EE00000221A605A609A60DA607B681B681F4A99
:101EF000934237D11E4BDB691D4A43F40033D36153
:101F00001B4BDB6903F40033FB60FB68184B9B69D8
:101F1000174A43F004039361154B9B6903F00403D4
:101F2000BB60BB6804233B6102237B610323FB612D
:101F300007F1100319460F4800F0DCFA08233B6153
:101F400000237B610023BB6107F110031946094898
:101F500000F0D0FA00220021262000F0E4F926202B
:101F600000F0FDF900BF2037BD4680BD00440040B1
:101F7000001002400008014080B400AFFEE780B4CA
:101F800000AFFEE780B400AFFEE780B400AFFEE72D
:101F900080B400AFFEE780B400AF00BFBD4680BC98
:101FA000704780B400AF00BFBD4680BC704780B4AE
:101FB00000AF00BFBD4680BC704780B500AF00F0E9
:101FC000BFF800BF80BD000080B500AF024801F03F
:101FD000FBF900BF80BD00BFCC01002080B500AF81
:101FE000024802F0C3F800BF80BD00BF1402002009
:101FF00080B586B000AF7860144A154BD31A7B6168
:102000007B693B61134B1B68002B02D1114B124AB9
:102010001A60104B1A687B6813443A699A4207D2D7
:1020200002F0CCFC03460C221A604FF0FF3309E0AB
:10203000084B1B68FB60074B1A687B681344054A12
:102040001360FB6818461837BD4680BD005000205D
:1020500000040000F80000207002002080B400AFEF
:1020600000BFBD4680BC70470C480D490D4A002397
:1020700002E0D458C4500433C4188C42F9D30A4A3D
:102080000A4C002301E013600432A242FBD3FFF7A5
:10209000E5FF02F099FCFFF7DFFB7047000000202E
:1020A0007C0000201C5300087C0000206C020020F3
:1020B000FEE7000080B500AF084B1B68074A43F0FD
:1020C00010031360032000F023F90F2000F008F83C
:1020D000FFF764FE0023184680BD00BF00200240C9
:1020E00080B582B000AF7860124B1A68124B1B7833
:1020F00019464FF47A73B3FBF1F3B2FBF3F31846CE
:1021000000F03BF90346002B01D001230EE07B6871
:102110000F2B0AD8002279684FF0FF3000F003F946
:10212000064A7B681360002300E001231846083745
:10213000BD4680BD0C0000201400002010000020CF
:1021400080B400AF054B1B781A46054B1B6813443F
:10215000034A136000BFBD4680BC704714000020D6
:102160005802002080B400AF024B1B681846BD46E1
:1021700080BC70475802002080B485B000AF786002
:102180007B6803F00703FB600C4BDB68BB60BA683D
:102190004FF6FF031340BB60FB681A02BB68134392
:1021A00043F0BF6343F40033BB60044ABB68D360B1
:1021B00000BF1437BD4680BC704700BF00ED00E093
:1021C00080B400AF044BDB681B0A03F0070318461A
:1021D000BD4680BC704700BF00ED00E080B483B016
:1021E00000AF0346FB7197F90730002B0BDBFB793F
:1021F00003F01F02064997F907305B09012000FA36
:1022000002F241F8232000BF0C37BD4680BC704766
:1022100000E100E080B483B000AF03463960FB7199
:1022200097F90730002B0ADB3B68DAB20C4997F9C3
:1022300007301201D2B20B4483F800230AE03B6856
:10224000DAB20849FB7903F00F03043B1201D2B262
:102250000B441A7600BF0C37BD4680BC704700BFE8
:1022600000E100E000ED00E080B489B000AFF8606C
:10227000B9607A60FB6803F00703FB61FB69C3F197
:102280000703042B28BF0423BB61FB690433062B1F
:1022900002D9FB69033B00E000237B614FF0FF3272
:1022A000BB6902FA03F3DA43BB681A407B699A40C0
:1022B0004FF0FF317B6901FA03F3D9437B680B4090
:1022C000134318462437BD4680BC704780B582B0A2
:1022D00000AF78607B68013BB3F1807F01D30123BD
:1022E0000FE00A4A7B68013B53600F214FF0FF303B
:1022F000FFF790FF054B00229A60044B07221A60FB
:10230000002318460837BD4680BD00BF10E000E03E
:1023100080B582B000AF78607868FFF72DFF00BF0E
:102320000837BD4680BD80B586B000AF0346B960B2
:102330007A60FB7300237B61FFF742FF78617A6864
:10234000B9687869FFF790FF024697F90F30114698
:102350001846FFF75FFF00BF1837BD4680BD80B548
:1023600082B000AF0346FB7197F907301846FFF7BC
:1023700035FF00BF0837BD4680BD80B582B000AFD5
:1023800078607868FFF7A2FF034618460837BD4615
:1023900080BD80B485B000AF78600023FB737B689C
:1023A00093F82130022B08D07B6804229A637B6863
:1023B000002283F82020012320E07B681B681A6834
:1023C0007B681B6822F00E021A607B681B681A6823
:1023D0007B681B6822F001021A607B681A6C7B68BC
:1023E000DB6B012101FA02F25A607B68012283F85B
:1023F00021207B68002283F82020FB7B18461437BD
:10240000BD4680BC7047000080B584B000AF7860E6
:102410000023FB737B6893F82130022B05D07B6887
:1024200004229A630123FB7351E07B681B681A68DE
:102430007B681B6822F00E021A607B681B681A68B2
:102440007B681B6822F001021A607B681B68224AC5
:10245000934229D07B681B68204A934222D07B6834
:102460001B681F4A93421AD07B681B681D4A93421F
:1024700012D07B681B681C4A93420AD07B681B6899
:102480001A4A934202D14FF480130EE04FF080734A
:102490000BE04FF4803308E04FF4805305E04FF435
:1024A000807302E0102300E00123114A53607B682F
:1024B000012283F821207B68002283F820207B689A
:1024C0005B6B002B03D07B685B6B78689847FB7B6A
:1024D00018461037BD4680BD080002401C0002406F
:1024E0003000024044000240580002406C000240AC
:1024F0000000024080B48BB000AF786039600023E8
:102500007B6200233B6269E101227B6A02FA03F3EA
:10251000FB613B681B68FA691340BB61BA69FB69E0
:102520009A4240F058813B685B689A4A93425ED079
:10253000984A934275D8984A934258D0964A934203
:102540006FD8964A934252D0944A934269D8944A9B
:1025500093424CD0924A934263D8924A934246D0D7
:10256000904A93425DD8122B2AD8122B59D801A237
:1025700052F823F0EF250008C9250008DB250008E4
:102580001D2600082326000823260008232600080D
:1025900023260008232600082326000823260008F7
:1025A00023260008232600082326000823260008E7
:1025B0002326000823260008D1250008E525000869
:1025C000794A934213D02CE03B68DB683B6229E0F8
:1025D0003B68DB6804333B6224E03B68DB6808331C
:1025E0003B621FE03B68DB680C333B621AE03B68F0
:1025F0009B68002B02D104233B6213E03B689B687D
:10260000012B05D108233B627B68FA691A6109E056
:1026100008233B627B68FA695A6103E000233B624E
:1026200000E000BFBB69FF2B01D87B6801E07B683D
:1026300004337B61BB69FF2B02D87B6A9B0002E0FD
:102640007B6A083B9B003B617B691A680F213B69F1
:1026500001FA03F3DB431A40396A3B6901FA03F3D9
:102660001A437B691A603B685B6803F08053002B58
:1026700000F0B1804D4B9B694C4A43F001039361DC
:102680004A4B9B6903F00103BB60BB68484A7B6A05
:102690009B08023352F82330FB607B6A03F003038C
:1026A0009B000F2202FA03F3DB43FA681340FB603E
:1026B0007B68404A934213D07B683F4A93420DD0D7
:1026C0007B683E4A934207D07B683D4A934201D1E2
:1026D000032306E0042304E0022302E0012300E0D8
:1026E00000237A6A02F0030292009340FA681343CF
:1026F000FB602F497B6A9B080233FA6841F823206C
:102700003B685B6803F48033002B06D02D4B1A68BE
:102710002C49BB6913430B6006E02A4B1A68BB695E
:10272000DB43284913400B603B685B6803F40033CC
:10273000002B06D0234B5A682249BB6913434B60D8
:1027400006E0204B5A68BB69DB431E4913404B60CF
:102750003B685B6803F48013002B06D0194B9A6822
:102760001849BB6913438B6006E0164B9A68BB6936
:10277000DB43144913408B603B685B6803F4001330
:10278000002B21D00F4BDA680E49BB691343CB6095
:1027900021E000BF000032100000311000002210C4
:1027A0000000211000001210000011100010024063
:1027B0000000014000080140000C014000100140F1
:1027C00000140140000401400B4BDA68BB69DB4395
:1027D00009491340CB607B6A01337B623B681A680E
:1027E0007B6A22FA03F3002B7FF48EAE00BF00BF9A
:1027F0002C37BD4680BC70470004014080B485B0D2
:1028000000AF78600B467B807B689A687B881340BA
:10281000002B02D00123FB7301E00023FB73FB7B41
:1028200018461437BD4680BC704780B483B000AFF3
:1028300078600B467B8013467B707B78002B03D03F
:102840007A887B681A6103E07B881A047B681A61C6
:1028500000BF0C37BD4680BC7047000080B586B015
:1028600000AF78607B68002B01D101236CE27B68AC
:102870001B6803F00103002B00F08780924B5B681C
:1028800003F00C03042B0CD08F4B5B6803F00C039C
:10289000082B12D18C4B5B6803F48033B3F5803F77
:1028A0000BD1894B1B6803F40033002B6CD07B6881
:1028B0005B68002B68D1012346E27B685B68B3F557
:1028C000803F06D1804B1B687F4A43F480331360FE
:1028D0002EE07B685B68002B0CD17B4B1B687A4A2F
:1028E00023F480331360784B1B68774A23F48023EA
:1028F00013601DE07B685B68B3F5A02F0CD1724BB1
:102900001B68714A43F4802313606F4B1B686E4A47
:1029100043F4803313600BE06B4B1B686A4A23F46B
:1029200080331360684B1B68674A23F4802313606D
:102930007B685B68002B13D0FFF714FC386108E05C
:10294000FFF710FC02463B69D31A642B01D903231D
:10295000FAE15D4B1B6803F40033002BF0D014E068
:10296000FFF700FC386108E0FFF7FCFB02463B691B
:10297000D31A642B01D90323E6E1534B1B6803F4FC
:102980000033002BF0D100E000BF7B681B6803F030
:102990000203002B63D04C4B5B6803F00C03002B4D
:1029A0000BD0494B5B6803F00C03082B1CD1464B42
:1029B0005B6803F48033002B16D1434B1B6803F094
:1029C0000203002B05D07B681B69012B01D001237A
:1029D000BAE13D4B1B6823F0F8027B685B69DB00C2
:1029E000394913430B603AE07B681B69002B20D008
:1029F000364B01221A60FFF7B5FB386108E0FFF79C
:102A0000B1FB02463B69D31A022B01D903239BE198
:102A10002D4B1B6803F00203002BF0D02A4B1B68E0
:102A200023F0F8027B685B69DB00274913430B60E6
:102A300015E0264B00221A60FFF794FB386108E08E
:102A4000FFF790FB02463B69D31A022B01D90323FF
:102A50007AE11D4B1B6803F00203002BF0D17B6869
:102A60001B6803F00803002B3AD07B689B69002B9E
:102A700019D0174B01221A60FFF774FB386108E088
:102A8000FFF770FB02463B69D31A022B01D90323DF
:102A90005AE10D4B5B6A03F00203002BF0D00120DA
:102AA00000F0D8FA1CE00A4B00221A60FFF75AFB2C
:102AB00038610FE0FFF756FB02463B69D31A022B41
:102AC00008D9032340E100BF001002400000424249
:102AD000800442429E4B5B6A03F00203002BE9D163
:102AE0007B681B6803F00403002B00F0A680002322
:102AF000FB75974BDB6903F08053002B0DD1944B92
:102B0000DB69934A43F08053D361914BDB6903F057
:102B10008053BB60BB680123FB758E4B1B6803F4BD
:102B20008073002B18D18B4B1B688A4A43F4807347
:102B30001360FFF717FB386108E0FFF713FB02464D
:102B40003B69D31A642B01D90323FDE0814B1B6839
:102B500003F48073002BF0D07B68DB68012B06D177
:102B60007B4B1B6A7A4A43F0010313622DE07B68BA
:102B7000DB68002B0CD1764B1B6A754A23F00103EE
:102B80001362734B1B6A724A23F0040313621CE046
:102B90007B68DB68052B0CD16D4B1B6A6C4A43F0DC
:102BA000040313626A4B1B6A694A43F00103136210
:102BB0000BE0674B1B6A664A23F001031362644B08
:102BC0001B6A634A23F0040313627B68DB68002BF3
:102BD00015D0FFF7C7FA38610AE0FFF7C3FA0246DB
:102BE0003B69D31A41F28832934201D90323ABE007
:102BF000574B1B6A03F00203002BEED014E0FFF7E3
:102C0000B1FA38610AE0FFF7ADFA02463B69D31A20
:102C100041F28832934201D9032395E04C4B1B6A61
:102C200003F00203002BEED1FB7D012B05D1484BB5
:102C3000DB69474A23F08053D3617B68DB69002B53
:102C400000F08180424B5B6803F00C03082B61D0DD
:102C50007B68DB69022B46D13F4B00221A60FFF7ED
:102C600081FA386108E0FFF77DFA02463B69D31A22
:102C7000022B01D9032367E0354B1B6803F0007377
:102C8000002BF0D17B681B6AB3F5803F08D1304B35
:102C90005B6823F400327B689B682D4913434B60CB
:102CA0002B4B5B6823F474127B68196A7B685B6A40
:102CB0000B43274913434B60274B01221A60FFF750
:102CC00051FA386108E0FFF74DFA02463B69D31A22
:102CD000022B01D9032337E01D4B1B6803F000735F
:102CE000002BF0D02FE01C4B00221A60FFF73AFABD
:102CF000386108E0FFF736FA02463B69D31A022B27
:102D000001D9032320E0124B1B6803F00073002B52
:102D1000F0D118E07B68DB69012B01D1012313E0BE
:102D20000B4B5B68FB60FB6803F480327B681B6ABB
:102D30009A4206D1FB6803F470127B685B6A9A4280
:102D400001D0012300E0002318461837BD4680BD9E
:102D500000100240007000406000424280B584B024
:102D600000AF786039607B68002B01D10123D0E08F
:102D70006A4B1B6803F007033A689A4210D9674B05
:102D80001B6823F0070265493B6813430B60634BE4
:102D90001B6803F007033A689A4201D00123B8E0A8
:102DA0007B681B6803F00203002B20D07B681B6844
:102DB00003F00403002B05D0594B5B68584A43F4D9
:102DC000E06353607B681B6803F00803002B05D0A9
:102DD000534B5B68524A43F460535360504B5B68FB
:102DE00023F0F0027B689B684D4913434B607B687E
:102DF0001B6803F00103002B40D07B685B68012B4C
:102E000007D1474B1B6803F40033002B15D1012376
:102E10007FE07B685B68022B07D1414B1B6803F0A6
:102E20000073002B09D1012373E03D4B1B6803F0B5
:102E30000203002B01D101236BE0394B5B6823F0C7
:102E400003027B685B68364913434B60FFF78AF9DE
:102E5000F8600AE0FFF786F90246FB68D31A41F2F0
:102E60008832934201D9032353E02D4B5B6803F072
:102E70000C027B685B689B009A42EBD1274B1B6876
:102E800003F007033A689A4210D2244B1B6823F0E0
:102E9000070222493B6813430B60204B1B6803F079
:102EA00007033A689A4201D0012332E07B681B682D
:102EB00003F00403002B08D0194B5B6823F4E06295
:102EC0007B68DB68164913434B607B681B6803F023
:102ED0000803002B09D0124B5B6823F460527B6817
:102EE0001B69DB000E4913434B6000F021F80246DA
:102EF0000B4B5B681B0903F00F030A49CB5C22FAFA
:102F000003F3094A1360094B1B681846FFF7E8F8FA
:102F1000002318461037BD4680BD00BF0020024088
:102F200000100240C85200080C00002010000020D1
:102F300090B48AB000AF2A4B3C1D0FCB84E80F0041
:102F400040F201233B800023FB610023BB6100238F
:102F50007B6200237B6100233B62224B5B68FB6149
:102F6000FB6903F00C03042B02D0082B03D02DE0E7
:102F70001D4B3B622DE0FB699B0C03F00F0307F137
:102F80002802134413F8243C7B61FB6903F480336B
:102F9000002B13D0134B5B685B0C03F0010307F1AC
:102FA0002802134413F8283CBB617B690E4A02FBDC
:102FB00003F2BB69B2FBF3F37B6204E07B690B4A6B
:102FC00002FB03F37B627B6A3B6202E0064B3B62DF
:102FD00000BF3B6A18462837BD4690BC704700BF0B
:102FE000B85200080010024000127A0000093D00AB
:102FF00080B400AF024B1B681846BD4680BC7047CA
:103000000C00002080B500AFFFF7F2FF0246054B31
:103010005B681B0A03F007030349CB5C22FA03F346
:10302000184680BD00100240D852000880B500AF9D
:10303000FFF7DEFF0246054B5B68DB0A03F0070380
:103040000349CB5C22FA03F3184680BD001002400E
:10305000D852000880B485B000AF78600A4B1B6876
:103060000A4AA2FB03235B0A7A6802FB03F3FB60B4
:1030700000BFFB685A1EFA60002BF9D100BF00BFE9
:103080001437BD4680BC70470C000020D34D621041
:1030900080B582B000AF78607B68002B01D101233E
:1030A00041E07B6893F83D30DBB2002B06D17B68B2
:1030B000002283F83C207868FEF7A2FE7B6802229B
:1030C00083F83D207B681A687B68043319461046F4
:1030D00000F028FC7B68012283F846207B680122EF
:1030E00083F83E207B68012283F83F207B68012221
:1030F00083F840207B68012283F841207B6801220D
:1031000083F842207B68012283F843207B680122F8
:1031100083F844207B68012283F845207B680122E4
:1031200083F83D20002318460837BD4680BD0000C7
:1031300080B485B000AF78607B6893F83D30DBB237
:10314000012B01D001233AE07B68022283F83D2065
:103150007B681B68DA687B681B6842F00102DA60F2
:103160007B681B68184A93420ED07B681B68B3F1DA
:10317000804F09D07B681B68144A934204D07B6857
:103180001B68134A934211D17B681B689B6803F04C
:103190000703FB60FB68062B10D07B681B681A686E
:1031A0007B681B6842F001021A6007E07B681B68BD
:1031B0001A687B681B6842F001021A6000231846F7
:1031C0001437BD4680BC7047002C0140000400400D
:1031D0000008004080B582B000AF78607B68002BAB
:1031E00001D1012341E07B6893F83D30DBB2002B35
:1031F00006D17B68002283F83C20786800F039F81B
:103200007B68022283F83D207B681A687B68043360
:103210001946104600F086FB7B68012283F84620A1
:103220007B68012283F83E207B68012283F83F20DF
:103230007B68012283F840207B68012283F84120CB
:103240007B68012283F842207B68012283F84320B7
:103250007B68012283F844207B68012283F84520A3
:103260007B68012283F83D20002318460837BD46BD
:1032700080BD80B483B000AF786000BF0C37BD461E
:1032800080BC704780B584B000AF786039603B681F
:10329000002B09D17B6893F83E30DBB2012B14BFC1
:1032A00001230023DBB222E03B68042B09D17B68B9
:1032B00093F83F30DBB2012B14BF01230023DBB2B4
:1032C00015E03B68082B09D17B6893F84030DBB2EE
:1032D000012B14BF01230023DBB208E07B6893F8C5
:1032E0004130DBB2012B14BF01230023DBB2002BE2
:1032F00001D001235EE03B68002B04D17B680222F1
:1033000083F83E2013E03B68042B04D17B68022243
:1033100083F83F200BE03B68082B04D17B68022236
:1033200083F8402003E07B68022283F841207B6819
:103330001B6801223968184600F074FD7B681B6821
:103340001E4A934207D17B681B685A6C7B681B68D6
:1033500042F400425A647B681B68184A93420ED0BC
:103360007B681B68B3F1804F09D07B681B68144AE7
:10337000934204D07B681B68124A934211D17B6848
:103380001B689B6803F00703FB60FB68062B10D0EB
:103390007B681B681A687B681B6842F001021A6030
:1033A00007E07B681B681A687B681B6842F00102B3
:1033B0001A60002318461037BD4680BD002C01401E
:1033C000000400400008004080B582B000AF786083
:1033D0007B681B681B6903F00203022B22D17B6808
:1033E0001B68DB6803F00203022B1BD17B681B68A0
:1033F0006FF002021A617B6801221A777B681B68F2
:103400009B6903F00303002B03D0786800F06FFA88
:1034100005E0786800F062FA786800F071FA7B687D
:1034200000221A777B681B681B6903F00403042BD6
:1034300022D17B681B68DB6803F00403042B1BD1DB
:103440007B681B686FF004021A617B6802221A779E
:103450007B681B689B6903F44073002B03D078687A
:1034600000F045FA05E0786800F038FA786800F076
:1034700047FA7B6800221A777B681B681B6903F098
:103480000803082B22D17B681B68DB6803F0080364
:10349000082B1BD17B681B686FF008021A617B68E0
:1034A00004221A777B681B68DB6903F00303002B97
:1034B00003D0786800F01BFA05E0786800F00EFA97
:1034C000786800F01DFA7B6800221A777B681B6819
:1034D0001B6903F01003102B22D17B681B68DB688B
:1034E00003F01003102B1BD17B681B686FF01002D8
:1034F0001A617B6808221A777B681B68DB6903F412
:103500004073002B03D0786800F0F1F905E078688B
:1035100000F0E4F9786800F0F3F97B6800221A778C
:103520007B681B681B6903F00103012B0ED17B68CC
:103530001B68DB6803F00103012B07D17B681B6864
:103540006FF001021A617868FEF788FB7B681B68E0
:103550001B6903F08003802B0ED17B681B68DB683E
:1035600003F08003802B07D17B681B686FF080021B
:103570001A61786800F0E1FC7B681B681B6903F046
:103580004003402B0ED17B681B68DB6803F04003CF
:10359000402B07D17B681B686FF040021A61786886
:1035A00000F0B7F97B681B681B6903F02003202B30
:1035B0000ED17B681B68DB6803F02003202B07D14A
:1035C0007B681B686FF020021A61786800F0ACFC21
:1035D00000BF0837BD4680BD80B584B000AFF8603D
:1035E000B9607A60FB6893F83C30012B01D102236B
:1035F000ACE0FB68012283F83C207B680C2B00F2D6
:103600009F8001A252F823F03D36000841370008A0
:1036100041370008413700087D360008413700086F
:103620004137000841370008BF360008413700081D
:103630004137000841370008FF360008FB681B6867
:10364000B968184600F0D0F9FB681B689A69FB68F6
:103650001B6842F008029A61FB681B689A69FB6864
:103660001B6822F004029A61FB681B689969BB68B9
:103670001A69FB681B680A439A6162E0FB681B6871
:10368000B968184600F016FAFB681B689A69FB686F
:103690001B6842F400629A61FB681B689A69FB68C8
:1036A0001B6822F480629A61FB681B689969BB6899
:1036B0001B691A02FB681B680A439A6141E0FB68B8
:1036C0001B68B968184600F05FFAFB681B68DA6986
:1036D000FB681B6842F00802DA61FB681B68DA6964
:1036E000FB681B6822F00402DA61FB681B68D96979
:1036F000BB681A69FB681B680A43DA6121E0FB6852
:103700001B68B968184600F0A9FAFB681B68DA69FB
:10371000FB681B6842F40062DA61FB681B68DA69C7
:10372000FB681B6822F48062DA61FB681B68D96958
:10373000BB681B691A02FB681B680A43DA6100E078
:1037400000BFFB68002283F83C2000231846103796
:10375000BD4680BD80B584B000AF786039607B68BD
:1037600093F83C30012B01D10223B3E07B680122A6
:1037700083F83C207B68022283F83D207B681B682D
:103780009B68FB60FB6823F07703FB60FB6823F416
:103790007F43FB607B681B68FA689A603B681B6824
:1037A000B3F5005F3ED0B3F5005F00F28780B3F55C
:1037B000805F00F08580B3F5805F7FD8702B1AD0D2
:1037C000702B7BD8602B50D0602B77D8502B3CD0FF
:1037D000502B73D8402B58D0402B6FD8302B64D04F
:1037E000302B6BD8202B60D0202B67D8002B5CD0DF
:1037F000102B5AD062E07B6818683B6899683B6878
:103800005A683B68DB6800F0EEFA7B681B689B68CF
:10381000FB60FB6843F07703FB607B681B68FA681A
:103820009A604EE07B6818683B6899683B685A6804
:103830003B68DB6800F0D7FA7B681B689A687B6896
:103840001B6842F480429A603BE07B6818683B68E2
:1038500059683B68DB681A4600F04EFA7B681B68C3
:103860005021184600F0A5FA2BE07B6818683B68E9
:1038700059683B68DB681A4600F06CFA7B681B6885
:103880006021184600F095FA1BE07B6818683B68D9
:1038900059683B68DB681A4600F02EFA7B681B68A3
:1038A0004021184600F085FA0BE07B681A683B68F7
:1038B0001B681946104600F07CFA02E000BF00E0E9
:1038C00000BF7B68012283F83D207B68002283F8DB
:1038D0003C20002318461037BD4680BD80B483B01D
:1038E00000AF786000BF0C37BD4680BC704780B425
:1038F00083B000AF786000BF0C37BD4680BC704716
:1039000080B483B000AF786000BF0C37BD4680BC88
:10391000704780B483B000AF786000BF0C37BD46FD
:1039200080BC704780B485B000AF786039607B6838
:103930001B68FB607B68294A93420BD07B68B3F11C
:10394000804F07D07B68264A934203D07B68254A84
:10395000934208D1FB6823F07003FB603B685B680F
:10396000FA681343FB607B681C4A93420BD07B6868
:10397000B3F1804F07D07B68194A934203D07B682C
:10398000184A934208D1FB6823F44073FB603B68FC
:10399000DB68FA681343FB60FB6823F080023B6836
:1039A0005B691343FB607B68FA681A603B689A683E
:1039B0007B68DA623B681A687B689A627B68074AB0
:1039C000934203D13B681A697B681A637B680122C2
:1039D0005A6100BF1437BD4680BC7047002C0140BF
:1039E000000400400008004080B487B000AF786059
:1039F00039607B681B6A23F001027B681A627B686E
:103A00001B6A7B617B685B683B617B689B69FB60D1
:103A1000FB6823F07003FB60FB6823F00303FB608B
:103A20003B681B68FA681343FB607B6923F0020361
:103A30007B613B689B687A6913437B617B681C4AA6
:103A400093420CD17B6923F008037B613B68DB6800
:103A50007A6913437B617B6923F004037B617B6894
:103A6000134A934211D13B6923F480733B613B6954
:103A700023F400733B613B685B693A6913433B6124
:103A80003B689B693A6913433B617B683A695A60BA
:103A90007B68FA689A613B685A687B685A637B68FE
:103AA0007A691A6200BF1C37BD4680BC704700BFF0
:103AB000002C014080B487B000AF786039607B682B
:103AC0001B6A23F010027B681A627B681B6A7B61A9
:103AD0007B685B683B617B689B69FB60FB6823F4E8
:103AE000E043FB60FB6823F44073FB603B681B68AA
:103AF0001B02FA681343FB607B6923F020037B61A0
:103B00003B689B681B017A6913437B617B681D4A94
:103B100093420DD17B6923F080037B613B68DB68B6
:103B20001B017A6913437B617B6923F040037B614E
:103B30007B68144A934213D13B6923F480633B6151
:103B40003B6923F400633B613B685B699B003A6916
:103B500013433B613B689B699B003A6913433B619C
:103B60007B683A695A607B68FA689A613B685A6870
:103B70007B689A637B687A691A6200BF1C37BD460E
:103B800080BC7047002C014080B487B000AF7860E3
:103B900039607B681B6A23F480727B681A627B68D9
:103BA0001B6A7B617B685B683B617B68DB69FB60F0
:103BB000FB6823F07003FB60FB6823F00303FB60EA
:103BC0003B681B68FA681343FB607B6923F400734E
:103BD0007B613B689B681B027A6913437B617B684E
:103BE0001D4A93420DD17B6923F400637B613B68DE
:103BF000DB681B027A6913437B617B6923F4806372
:103C00007B617B68144A934213D13B6923F4805350
:103C10003B613B6923F400533B613B685B691B01DB
:103C20003A6913433B613B689B691B013A69134343
:103C30003B617B683A695A607B68FA68DA613B6885
:103C40005A687B68DA637B687A691A6200BF1C373E
:103C5000BD4680BC704700BF002C014080B487B0D7
:103C600000AF786039607B681B6A23F480527B6800
:103C70001A627B681B6A3B617B685B687B617B685F
:103C8000DB69FB60FB6823F4E043FB60FB6823F423
:103C90004073FB603B681B681B02FA681343FB60C0
:103CA0003B6923F400533B613B689B681B033A6903
:103CB00013433B617B680F4A934209D17B6923F42C
:103CC00080437B613B685B699B017A6913437B613D
:103CD0007B687A695A607B68FA68DA613B685A687F
:103CE0007B681A647B683A691A6200BF1C37BD465C
:103CF00080BC7047002C014080B487B000AFF860F2
:103D0000B9607A60FB681B6A7B61FB681B6A23F001
:103D10000102FB681A62FB689B693B613B6923F007
:103D2000F0033B617B681B013A6913433B617B698C
:103D300023F00A037B617A69BB6813437B61FB68EC
:103D40003A699A61FB687A691A6200BF1C37BD46FE
:103D500080BC704780B487B000AFF860B9607A600B
:103D6000FB681B6A23F01002FB681A62FB689B6900
:103D70007B61FB681B6A3B617B6923F470437B6159
:103D80007B681B037A6913437B613B6923F0A003C3
:103D90003B61BB681B013A6913433B61FB687A696D
:103DA0009A61FB683A691A6200BF1C37BD4680BC45
:103DB000704780B485B000AF786039607B689B68DD
:103DC000FB60FB6823F07003FB603A68FB681343F9
:103DD00043F00703FB607B68FA689A6000BF143702
:103DE000BD4680BC704780B487B000AFF860B96052
:103DF0007A603B60FB689B687B617B6923F47F434F
:103E00007B613B681A027B681A43BB6813437A697B
:103E100013437B61FB687A699A6000BF1C37BD461B
:103E200080BC704780B487B000AFF860B9607A603A
:103E3000BB6803F01F03012202FA03F37B61FB68F6
:103E40001A6A7B69DB431A40FB681A62FB681A6ACC
:103E5000BB6803F01F03796801FA03F31A43FB6898
:103E60001A6200BF1C37BD4680BC704780B485B065
:103E700000AF786039607B6893F83C30012B01D14A
:103E8000022346E07B68012283F83C207B68022203
:103E900083F83D207B681B685B68FB607B681B6860
:103EA0009B68BB60FB6823F07003FB603B681B688A
:103EB000FA681343FB607B681B68FA685A607B688A
:103EC0001B68164A93420ED07B681B68B3F1804F83
:103ED00009D07B681B68124A934204D07B681B6838
:103EE000104A93420CD1BB6823F08003BB603B684F
:103EF0005B68BA681343BB607B681B68BA689A60EA
:103F00007B68012283F83D207B68002283F83C20F7
:103F1000002318461437BD4680BC7047002C014072
:103F2000000400400008004080B483B000AF786017
:103F300000BF0C37BD4680BC704780B483B000AF73
:103F4000786000BF0C37BD4680BC704780B582B03A
:103F500000AF78607B68002B01D101233FE07B68D4
:103F600093F83D30DBB2002B06D17B68002283F84A
:103F70003C207868FDF7AEFF7B68242283F83D2063
:103F80007B681B68DA687B681B6822F40052DA6081
:103F9000786800F085FC7B681B681A697B681B6881
:103FA00022F490421A617B681B685A697B681B681F
:103FB00022F02A025A617B681B68DA687B681B68FA
:103FC00042F40052DA607B6800221A647B68202287
:103FD00083F83D207B68202283F83E20002318468A
:103FE0000837BD4680BD80B58AB002AFF860B960C1
:103FF0003B601346FB8000237B61FB6893F83D30F8
:10400000DBB2202B7CD1BB68002B02D0FB88002BBD
:1040100001D1012375E0FB6893F83C30012B01D1FD
:1040200002236EE0FB68012283F83C20FB6800223B
:104030001A64FB68212283F83D20FEF793F878612B
:10404000FB68FA889A84FB68FA88DA84FB689B68C4
:10405000B3F5805F08D1FB681B69002B04D10023F6
:10406000FB61BB68BB6103E0BB68FB610023BB6114
:10407000FB68002283F83C202AE03B6800937B69C0
:1040800000228021F86800F038FA0346002B01D0A6
:10409000032336E0FB69002B0BD1BB691B881A4652
:1040A000FB681B68C2F308025A60BB690233BB613C
:1040B00007E0FB691A78FB681B685A60FB690133EB
:1040C000FB61FB68DB8C9BB2013B9AB2FB68DA8434
:1040D000FB68DB8C9BB2002BCFD13B6800937B69E4
:1040E00000224021F86800F008FA0346002B01D0B6
:1040F000032306E0FB68202283F83D20002300E034
:10410000022318462037BD4680BD80B584B000AF7D
:10411000F860B9601346FB80FB6893F83E30DBB271
:10412000202B1DD1BB68002B02D0FB88002B01D1B6
:10413000012316E0FB6893F83C30012B01D10223E8
:104140000FE0FB68012283F83C20FB6800221A6321
:10415000FB881A46B968F86800F019FA034600E0CF
:10416000022318461037BD4680BD000080B58AB0D6
:1041700000AF78607B681B681B687B627B681B688C
:10418000DB683B627B681B685B69FB610023BB618A
:1041900000237B617B6A03F00F03BB61BB69002BCB
:1041A0000DD17B6A03F02003002B08D03B6A03F09B
:1041B0002003002B03D0786800F0C9FA7BE1BB69CB
:1041C000002B00F0B180FB6903F00103002B05D147
:1041D0003B6A03F49073002B00F0A6807B6A03F027
:1041E0000103002B0AD03B6A03F48073002B05D037
:1041F0007B681B6C43F001027B681A647B6A03F0E6
:104200000403002B0AD0FB6903F00103002B05D047
:104210007B681B6C43F002027B681A647B6A03F0C4
:104220000203002B0AD0FB6903F00103002B05D029
:104230007B681B6C43F004027B681A647B6A03F0A2
:104240000803002B0FD03B6A03F02003002B04D19E
:10425000FB6903F00103002B05D07B681B6C43F066
:1042600008027B681A647B681B6C002B00F01E81BF
:104270007B6A03F02003002B07D03B6A03F0200386
:10428000002B02D0786800F062FA7B681B685B69DB
:1042900003F04003002B14BF01230023DBB27B613A
:1042A0007B681B6C03F00803002B02D17B69002B99
:1042B00031D0786800F0A4F97B681B685B6903F073
:1042C0004003002B23D07B681B685A697B681B68FE
:1042D00022F040025A617B689B6B002B13D07B68F5
:1042E0009B6B764A5A637B689B6B1846FEF78CF88B
:1042F0000346002B16D07B689B6B5B6B7A68926BD6
:10430000104698470EE0786800F0E3F80AE0786815
:1043100000F0DFF806E0786800F0DBF87B68002248
:104320001A64C3E000BFC1E07B681B6B012B40F047
:10433000A1807B6A03F01003002B00F09B803B6A96
:1043400003F01003002B00F095800023FB607B68D6
:104350001B681B68FB607B681B685B68FB60FB6815
:104360007B681B685B6903F04003002B4ED07B68C1
:104370009B6B1B685B683B823B8A002B00F098803C
:104380007B689B8D3A8A9A4280F092807B683A8A59
:10439000DA857B689B6B9B69202B2BD07B681B6825
:1043A000DA687B681B6822F48072DA607B681B68BD
:1043B0005A697B681B6822F001025A617B681B689E
:1043C0005A697B681B6822F040025A617B68202290
:1043D00083F83E207B6800221A637B681B68DA68DA
:1043E0007B681B6822F01002DA607B689B6B1846C2
:1043F000FDF7CFFF7B689A8D7B68DB8D9BB2D31A6C
:104400009BB21946786800F06DF851E07B689A8D90
:104410007B68DB8D9BB2D31A7B827B68DB8D9BB282
:10442000002B47D07B8A002B44D07B681B68DA685E
:104430007B681B6822F49072DA607B681B685A699B
:104440007B681B6822F001025A617B68202283F896
:104450003E207B6800221A637B681B68DA687B68F1
:104460001B6822F01002DA607B8A1946786800F037
:1044700039F81FE07B6A03F08003002B08D03B6A09
:1044800003F08003002B03D0786800F0F9F812E005
:104490007B6A03F04003002B0DD03B6A03F040031E
:1044A000002B08D0786800F03AF904E000BF02E081
:1044B00000BF00E000BF2837BD4680BD5946000858
:1044C00080B483B000AF786000BF0C37BD4680BCBD
:1044D000704780B483B000AF786000BF0C37BD4632
:1044E00080BC704780B483B000AF78600B467B809F
:1044F00000BF0C37BD4680BC704780B584B000AFAC
:10450000F860B9603B601346FB712CE0BB69B3F106
:10451000FF3F28D0BB69002B07D0FDF723FE0246E2
:104520003B68D31ABA699A421DD2FB681B68DA68E5
:10453000FB681B6822F4D072DA60FB681B685A695A
:10454000FB681B6822F001025A61FB68202283F895
:104550003D20FB68202283F83E20FB68002283F880
:104560003C2003230FE0FB681B681A68BB681340FC
:10457000BA689A420CBF01230023DBB21A46FB79CA
:104580009A42C3D0002318461037BD4680BD80B480
:1045900085B000AFF860B9601346FB80FB68BA686D
:1045A0009A62FB68FA889A85FB68FA88DA85FB6864
:1045B00000221A64FB68222283F83E20FB68002256
:1045C00083F83C20FB681B68DA68FB681B6842F4D0
:1045D0008072DA60FB681B685A69FB681B6842F0EE
:1045E00001025A61FB681B68DA68FB681B6842F0CD
:1045F0002002DA60002318461437BD4680BC70479D
:1046000080B483B000AF78607B681B68DA687B6831
:104610001B6822F49072DA607B681B685A697B68B9
:104620001B6822F001025A617B681B6B012B07D1CA
:104630007B681B68DA687B681B6822F01002DA600E
:104640007B68202283F83E207B6800221A6300BF2B
:104650000C37BD4680BC704780B584B000AF786031
:104660007B685B6AFB60FB680022DA85FB680022DE
:10467000DA84F868FFF72DFF00BF1037BD4680BD14
:1046800080B485B000AF78607B6893F83D30DBB2D2
:10469000212B3ED17B689B68B3F5805F14D17B688A
:1046A0001B69002B10D17B681B6AFB60FB681B88B1
:1046B0001A467B681B68C2F308025A607B681B6A53
:1046C0009A1C7B681A6208E07B681B6A591C7A682E
:1046D00011621A787B681B685A607B68DB8C9BB21E
:1046E000013B9BB27A681946D184002B0FD17B68BD
:1046F0001B68DA687B681B6822F08002DA607B68DE
:104700001B68DA687B681B6842F04002DA600023AD
:1047100000E0022318461437BD4680BC704780B5C0
:1047200082B000AF78607B681B68DA687B681B68C2
:1047300022F04002DA607B68202283F83D2078680E
:10474000FFF7BEFE002318460837BD4680BD80B582
:1047500086B000AF78607B6893F83E30DBB2222BE6
:1047600040F099807B689B68B3F5805F17D17B68C8
:104770001B69002B13D100237B617B689B6A3B6123
:104780007B681B685B689BB2C3F308039AB23B6902
:104790001A807B689B6A9A1C7B689A6226E07B6819
:1047A0009B6A7B6100233B617B689B68B3F5805FFC
:1047B00007D07B689B68002B0AD17B681B69002BA4
:1047C00006D17B681B685B68DAB27B691A7008E007
:1047D0007B681B685B68DBB203F07F03DAB27B693E
:1047E0001A707B689B6A5A1C7B689A627B68DB8DB7
:1047F0009BB2013B9BB27A681946D185002B48D108
:104800007B681B68DA687B681B6822F02002DA602C
:104810007B681B68DA687B681B6822F48072DA6048
:104820007B681B685A697B681B6822F001025A6129
:104830007B68202283F83E207B681B6B012B23D1F1
:104840007B6800221A637B681B68DA687B681B68D8
:1048500022F01002DA607B681B681B6803F010030B
:10486000102B0AD10023FB607B681B681B68FB6070
:104870007B681B685B68FB60FB687B689B8D1946E7
:104880007868FFF72FFE02E07868FCF78DFF0023C1
:1048900002E0002300E0022318461837BD4680BD21
:1048A00080B584B000AF78607B681B681B6923F417
:1048B00040517B68DA687B681B680A431A617B6831
:1048C0009A687B681B691A437B685B691343BB600A
:1048D0007B681B68DB6823F4B05323F00C037A6811
:1048E0001268B9680B43D3607B681B685B6923F46B
:1048F00040717B689A697B681B680A435A617B68D0
:104900001B682C4A934203D1FEF790FBF86002E04B
:10491000FEF778FBF860FA6813469B0013449A0090
:104920001A447B685B689B00B2FBF3F3224AA2FB4C
:1049300003235B091901FA6813469B0013449A008C
:104940001A447B685B689B00B2FBF3F21A4BA3FB33
:1049500002035B09642000FB03F3D31A1B0132330B
:10496000154AA2FB03235B0903F0F0031944FA681C
:1049700013469B0013449A001A447B685B689B00B3
:10498000B2FBF3F20C4BA3FB02035B09642000FBB8
:1049900003F3D31A1B013233074AA2FB03235B093B
:1049A00003F00F027B681B680A449A6000BF10374F
:1049B000BD4680BD003801401F85EB51014B186892
:1049C000704700BF1800002070B500260C4D0D4C3C
:1049D000641BA410A64209D100F05CFC00260A4D1D
:1049E0000A4C641BA410A64205D170BD55F8043BC7
:1049F00098470136EEE755F8043B98470136F2E751
:104A000014530008145300081453000818530008E6
:104A100003460244934200D1704703F8011BF9E7B3
:104A20000EB46FF0004100B59CB01DAB0290069033
:104A3000079104910848094953F8042B059100682F
:104A400002A9019300F068F80022029B1A701CB0C2
:104A50005DF804EB03B07047180000200802FFFF68
:104A60002DE9F0478E6882469E420C4690461F46CE
:104A700038D88A8912F4906F32D0256809690133D9
:104A8000A5EB010965694B4405EB450505EBD575BB
:104A90006D109D4238BF1D46530531D5294600F0A3
:104AA00053FB064650B90C234FF0FF30CAF80030D4
:104AB000A38943F04003A381BDE8F0874A462169FA
:104AC00000F0CEFAA38923F4906343F08003A3811E
:104AD00026614E4426603E466561A5EB0905A5604A
:104AE000BE4200D93E4632464146206800F0C6FA32
:104AF000A36822689B1B32440020A3602260DBE78E
:104B00002A4600F07BFB06460028E1D15046216989
:104B100000F0CEFAC7E700002DE9F04F98468B89E8
:104B200007461B060D4614469DB00ED50B6963B9AA
:104B3000402100F009FB2860286120B90C233B606C
:104B40004FF0FF30D1E040236B6100230993202315
:104B50008DF8293030234FF00109CDF80C80DFF8B3
:104B6000A4818DF82A3023469A4613F8012B0AB106
:104B7000252AF9D1BAEB040B0BD05B462246294615
:104B80003846FFF76DFF013000F0AA80099A5A44B9
:104B900009929AF80030002B00F0A28000234FF019
:104BA000FF32CDE905230AF1010A049307938DF83A
:104BB00053301A935446052214F8011B514800F053
:104BC00041FA049AD8B9D00644BF20238DF8533057
:104BD000110744BF2B238DF853309AF800302A2B4D
:104BE00015D0544600204FF00A0C079A214611F8C0
:104BF000013B303B092B4ED9B0B1079214E0A0EB3A
:104C0000080309FA03F31343A2460493D2E7039B74
:104C1000191D1B680391002BBBBF5B4242F00202CF
:104C200007930793B8BF049223782E2B0CD1637897
:104C30002A2B35D1039B02341A1D1B680392002BCB
:104C4000B8BF4FF0FF330593DFF8C8A003225046EA
:104C5000217800F0F7F940B14023A0EB0A0003FAF5
:104C600000F0049B01340343049314F8011B062253
:104C700025488DF8281000F0E5F9002838D0234B9E
:104C80001BBB039B073323F0070308330393099BE4
:104C90003344099367E70C4601200CFB0232A5E779
:104CA00000234FF00A0C194601340593204610F8F2
:104CB000012B303A092A03D9002BC5D00591C3E74F
:104CC000044601230CFB0121F0E703AB00932A46C5
:104CD00038460F4B04A9AFF30080421C0646D6D1DC
:104CE000AB895B063FF52CAF09981DB0BDE8F08F8E
:104CF00003AB00932A463846054B04A900F07CF824
:104D0000EBE700BFE0520008EA5200080000000094
:104D1000614A0008E65200082DE9F0471646994618
:104D20008A680B6907469342B8BF1346336091F80F
:104D300043200C46DDF820800AB10133336023683C
:104D4000990642BF336802333360256815F00605C3
:104D500006D104F1190AE36832689B1AAB4228DCD9
:104D600094F84320131E226818BF012392062DD405
:104D70004946384604F14302C047013020D0236839
:104D8000E56803F00603042B18BF002532684FF0D6
:104D90000006A36808BFAD1A226908BF25EAE575B9
:104DA0009342C4BF9B1AED181A34B5421AD10020A1
:104DB00008E00123524649463846C047013003D136
:104DC0004FF0FF30BDE8F0870135C4E73020E1182F
:104DD00081F843005A1C94F845102244023382F8AB
:104DE0004310C5E70123224649463846C0470130F3
:104DF000E6D00136D9E700002DE9FF470C46277EB3
:104E00009146782F80469A460C9904F1430207D8C0
:104E1000622F0AD8002F00F0D980582F00F0A4800C
:104E200004F1420684F842703AE0A7F16303152BBF
:104E3000F6D801A050F823F0914E0008A54E0008C6
:104E4000214E0008214E0008214E0008214E000886
:104E5000A54E0008214E0008214E0008214E0008F2
:104E6000214E0008B34F0008D54E0008954F0008AA
:104E7000214E0008214E0008D54F0008214E0008A1
:104E8000D54E0008214E0008214E00089D4F000815
:104E90000B6804F142061A1D1B680A6084F8423050
:104EA0000123A4E0256808682E0600F104030AD552
:104EB00005680B60002D03DA2D236D4284F8433022
:104EC0000A235E4819E015F0400F05680B6018BF13
:104ED0002DB2EFE70B682568181D0860280601D57C
:104EE0001D6802E06906FBD51D886F2F0CBF0823E3
:104EF0000A235248002184F843106668002EA8BF98
:104F00002168A660A4BF21F0040121600DB9002E24
:104F10004DD01646B5FBF3F103FB1157C75D06F8FC
:104F2000017D2F46BB420D46F4D9082B0BD12368D7
:104F3000DF0708D5236961689942DEBF302306F890
:104F4000013C06F1FF36921B22614B46214640464A
:104F5000CDF800A003AAFFF7DFFE01304CD14FF0DF
:104F6000FF3004B0BDE8F087344884F845700E681F
:104F7000236856F8045B1F060E6014D5D90744BF9A
:104F800043F0200323601DB9236823F0200323602E
:104F90001023AFE7236843F02003236078232848D9
:104FA00084F84530E3E75E0648BFADB2E6E7164653
:104FB000BBE70B6826681D1D60690D6035061B6820
:104FC00001D5186002E07106FBD518800023164653
:104FD0002361BAE70B681A1D0A601E68002130467B
:104FE000626800F02FF808B1801B6060636823617D
:104FF000002384F84330A8E73246494640462369F7
:10500000D0470130ABD023689B0713D4E068039BE3
:105010009842B8BF1846A4E70123324649464046A5
:10502000D04701309BD00135E36803995B1AAB424E
:10503000F2DCEBE7002504F11906F5E7F152000870
:1050400002530008034610B5C9B202449342184601
:1050500001D1002003E0047801338C42F6D110BD69
:105060000A44914200F1FF3300D1704710B511F8A6
:10507000014B914203F8014FF9D110BD884210B5A0
:1050800001EB020402D98442234607D8431EA14201
:1050900008D011F8012B03F8012FF8E7014602446C
:1050A0008A4200D110BD13F8014D02F8014DF7E717
:1050B00038B50546002943D051F8043C0C1F002B9D
:1050C000B8BFE41800F0D0F81E4A1368104633B990
:1050D000636014602846BDE8384000F0CBB8A342B6
:1050E0000AD921686218934201BF1A685B68521896
:1050F000226063600460EDE71A465B680BB1A3426F
:10510000FAD911685018A0420BD1206801445018F8
:1051100083421160DED118685B68014411605360FE
:10512000D8E702D90C232B60D4E7206821188B42E2
:1051300001BF19685B680918216063605460C9E7A2
:1051400038BD00BFFC000020F8B5CD1C25F00305DC
:1051500008350C2D38BF0C25002D064601DBA94271
:1051600003D90C2333600020F8BD00F07DF82149FD
:105170000A6814469CB9204F3B6823B92146304643
:1051800000F062F838602946304600F05DF8431CB4
:1051900023D10C233046336000F06CF8E3E723683A
:1051A0005B1B17D40B2B03D923601C44256004E040
:1051B0006368A2420CBF0B605360304600F05AF89F
:1051C00004F10B00231D20F00700C21ACCD01B1ADB
:1051D000A350C9E722466468CCE7C41C24F003044A
:1051E000A042E3D0211A304600F02EF80130DDD184
:1051F000CFE700BFFC00002000010020F8B5074603
:1052000014460E4621B91146BDE8F840FFF79CBF91
:1052100022B9FFF74DFF25462846F8BD00F030F8CB
:10522000A0420FD221463846FFF78EFF05460028E0
:10523000F2D031462246FFF713FF31463846FFF7DA
:1052400037FFE9E73546E7E738B50023054D044663
:1052500008462B60FCF7CCFE431C02D12B6803B13F
:10526000236038BD5C020020014800F011B800BF87
:1052700064020020014800F00CB800BF6402002066
:1052800051F8043C181F002BBCBF0B58C0187047C6
:1052900070477047F8B500BFF8BC08BC9E46704721
:0C52A000F8B500BFF8BC08BC9E46704783
:1052AC0021375345473A2532640A000002030405AE
:1052BC00060708090A0B0C0D0E0F10100000000059
:1052CC0000000000010203040607080900000000AA
:1052DC0001020304232D302B2000686C4C00656602
:1052EC00674546470030313233343536373839412B
:1052FC004243444546003031323334353637383941
:08530C00616263646566000044
:045314003501000857
:045318001101000877
:10531C00983A0000B0360000E80300000024F400C6
:10532C0010000000010000001C0000200000000024
:10533C000000000000000000000000000000000061
:10534C000000000000000000000000000000000051
:10535C000000000000000000000000000000000041
:10536C000000000000000000000000000000000031
:10537C000000000000000000000000000000000021
:0C538C0000000000000000000000000015
:040000050800206966
:00000001FF
